:100000003FC059C058C057C056C055C054C053C057
:1000100052C0D4C050C04FC04EC04DC04CC04BC0E9
:100020004AC049C048C00000000037003400310019
:1000300000000000380035003200000000003600EB
:100040003300300004040404040404040202020225
:10005000020203030303030301020408102040808B
:100060000102040810200102040810200000000012
:100070000000000000030405000000000000000074
:1000800011241FBECFE5D4E0DEBFCDBF10E0A0E657
:10009000B0E0EEE7F4E002C005900D92A036B107A3
:1000A000D9F710E0A0E6B0E001C01D92AB36B10771
:1000B000E1F7DFD1E2C1A4CF8DE061E09DD18CE01A
:1000C00060E09AD18BE061E097D188E060E094D164
:1000D000109261001092600016C08AE032D16091E7
:1000E00060007091610089E02CD164EF71E080E0E4
:1000F00090E0ACD080916000909161000A9690935E
:1001000061008093600060916000709161006B3FBE
:1001100071051CF368EB7BE080E090E097D01092D3
:100120006100109260008DE060E066D18CE061E0DB
:1001300063D18BE060E060D188E061E05DD1109236
:1001400061001092600016C08AE0FBD060916000F0
:100150007091610089E0F5D064EF71E080E090E09B
:1001600075D080916000909161000A969093610033
:100170008093600060916000709161006B3F710539
:100180001CF368EB7BE080E090E060D010926100AF
:100190001092600008958DE061E008D18CE061E08C
:1001A00005D18AE061E002D18BE061E0FFD088E018
:1001B00061E0FCD089E061E0F9D008951F920F92D0
:1001C0000FB60F9211242F933F938F939F93AF936A
:1001D000BF938091660090916700A0916800B091F4
:1001E000690030916A000196A11DB11D232F2D5F7A
:1001F0002D3720F02D570196A11DB11D20936A00C7
:100200008093660090936700A0936800B0936900A4
:100210008091620090916300A0916400B0916500AC
:100220000196A11DB11D8093620090936300A0937D
:100230006400B0936500BF91AF919F918F913F9102
:100240002F910F900FBE0F901F9018959B01AC013E
:100250007FB7F8948091620090916300A091640050
:10026000B091650062B708B600FE05C06F3F19F097
:100270000196A11DB11D7FBFBA2FA92F982F8827E6
:10028000860F911DA11DB11D62E0880F991FAA1F45
:10029000BB1F6A95D1F7BC012EC0FFB7F8948091BF
:1002A000620090916300A0916400B0916500E2B794
:1002B00008B600FE05C0EF3F19F00196A11DB11D63
:1002C000FFBFBA2FA92F982F88278E0F911DA11D30
:1002D000B11DE2E0880F991FAA1FBB1FEA95D1F755
:1002E000861B970B885E9340C0F2215030404040FF
:1002F000504068517C4F211531054105510569F683
:100300000895789483B7826083BF83B7816083BF89
:1003100089B7816089BF1EBC8EB582608EBD8EB5E7
:1003200081608EBD8FB581608FBD85B5846085BDD0
:1003300085B5806485BD329A319A309A379A1AB859
:1003400008951F93CF93DF93182FEB0161E02ED018
:10035000209711F1CF3FD10511F1E12FF0E0E459E1
:10036000FF4F8491843051F0853071F0833089F4EF
:100370008FB580688FBDDBBDCABD14C08FB58062EC
:100380008FBDD9BDC8BD0EC085B5806285BDC3BD5A
:1003900009C0C038D1051CF4812F60E002C0812F54
:1003A00061E02AD0DF91CF911F910895482F50E04E
:1003B000CA01885A9F4FFC0124914C5B5F4FFA01A0
:1003C00084918823C1F0E82FF0E0EE0FFF1FEA5D73
:1003D000FF4FA591B491662341F49FB7F8948C9197
:1003E000209582238C939FBF08959FB7F8948C919A
:1003F000822B8C939FBF0895482F50E0CA018459E7
:100400009F4FFC012491CA01885A9F4FFC013491EF
:100410004C5B5F4FFA019491992351F1222381F0B3
:10042000243039F0253049F0233051F48FB58F77DF
:1004300002C08FB58F7D8FBD03C085B58F7D85BD13
:10044000E92FF0E0EE0FFF1FE05DFF4FA591B491A3
:10045000662341F49FB7F8948C91309583238C9355
:100460009FBF08959FB7F8948C91832B8C939FBF67
:0E047000089547DF90DE20DEFECFF894FFCF28
:00000001FF
