:1000000040C09BC3C7C362C061C060C05FC05EC068
:100010005DC0EDC35BC05CC5A0C558C057C056C02D
:1000200055C054C053C000000000370034003100F8
:1000300000000000380035003200000000003600EB
:100040003300300004040404040404040202020225
:10005000020203030303030301020408102040808B
:100060000102040810200102040810200000000012
:100070000000000000030405000000000000000074
:100080000D0711241FBECFE5D4E0DEBFCDBF10E0C9
:10009000A0E6B0E0EEEAF3E102C005900D92AA3BC3
:1000A000B107D9F711E0AAEBB0E001C01D92A13B66
:1000B000B107E1F710E0C2E8D0E003C02297FE01EB
:1000C00070D9C038D107D1F7F8D66FC999CF8091D0
:1000D000BA009091BB00A091BC00B091BD00019608
:1000E000A11DB11D8093BA009093BB00A093BC00EA
:1000F000B093BD0008958091FB009091FC000197A2
:1001000041F483E161E0AAD41092FC001092FB005C
:10011000089583E160E0A2D481E090E09093FC0038
:100120008093FB0008951F93282F162F8091F900CC
:100130009091FA00892B19F4822F60E008C0809119
:10014000F7009091F800892B31F4822F61E086D47A
:10015000812F60E005C0822F60E080D4812F61E0B4
:100160007DD41F9108956F927F928F929F92AF924C
:10017000BF92CF92DF92EF92FF920F931F93E09086
:10018000D200F090D3000091D4001091D500C801A6
:10019000B70120E030E040E050E029D7882309F49F
:1001A0009AC0C801B7012091C2003091C3004091AC
:1001B000C4005091C500B6D67B018C016093CA0083
:1001C0007093CB008093CC009093CD002091DA0007
:1001D0003091DB004091DC005091DD00A4D65B0142
:1001E0006C016093DA007093DB008093DC009093E5
:1001F000DD00C801B7012091EA003091EB00409189
:10020000EC005091ED008ED63B014C016093E20072
:100210007093E3008093E4009093E500C801B70178
:100220002FE135E84BE65EE335D820E030E04FE7DC
:1002300053E430D820E030E44CE156E4DCD67B01D6
:100240008C01C601B5012FE832EC45E75DE322D809
:1002500020E030E04FE753E41DD820E030E44CE1EB
:1002600056E4C9D69B01AC01C801B7015CD67B013D
:100270008C01C401B3012AE037ED43EA5BE30AD8FD
:1002800020E030E04FE753E405D820E030E44CE1D3
:1002900056E4B1D69B01AC01C801B70144D613D7CF
:1002A0007093BF006093BE006F3F710539F034F06A
:1002B0008FEF90E09093BF008093BE008091BE00CE
:1002C0009091BF0005975CF485E090E09093BF00AB
:1002D0008093BE0004C01092BF001092BE006091D7
:1002E000BE007091BF0089E045D3E090D600F09049
:1002F000D7000091D8001091D900C801B70120E0C3
:1003000030E040E050E073D6882309F49AC0C80179
:10031000B7012091C6003091C7004091C8005091AC
:10032000C90000D67B018C016093CE007093CF0092
:100330008093D0009093D1002091DE003091DF00B7
:100340004091E0005091E100EED55B016C016093BB
:10035000DE007093DF008093E0009093E100C8011D
:10036000B7012091EE003091EF004091F0005091E4
:10037000F100D8D53B014C016093E6007093E70093
:100380008093E8009093E900C801B7012FE135E8B8
:100390004BE65EE37FD720E030E04FE753E47AD7C7
:1003A00020E030E44CE156E426D67B018C01C60106
:1003B000B5012FE832EC45E75DE36CD720E030E093
:1003C0004FE753E467D720E030E44CE156E413D61E
:1003D0009B01AC01C801B701A6D57B018C01C4010A
:1003E000B3012AE037ED43EA5BE354D720E030E085
:1003F0004FE753E44FD720E030E44CE156E4FBD51F
:100400009B01AC01C801B7018ED55DD67093C100C8
:100410006093C0006F3F710539F034F08FEF90E0CA
:100420009093C1008093C0008091C0009091C10062
:1004300005975CF485E090E09093C1008093C00044
:1004400004C01092C1001092C0006091C000709171
:10045000C1008AE08FD21F910F91FF90EF90DF9043
:10046000CF90BF90AF909F908F907F906F900895A6
:100470001092BA001092BB001092BC001092BD0006
:1004800080E067E670E043E050E01ED165E070E098
:1004900080E090E0F4D180E03AD16091BA007091B0
:1004A000BB008091BC009091BD003ED620E030E0C2
:1004B00040E05BE3EFD620E030E048E453E4EAD6E6
:1004C00020E030E040E752E4E5D66093C20070934C
:1004D000C3008093C4009093C50020E030E44CE159
:1004E00056E4D4D6181664F480E090E4ACE1B6E4A7
:1004F0008093C2009093C300A093C400B093C50042
:100500001092BA001092BB001092BC001092BD0075
:1005100081E067E670E043E050E0D6D065E070E04F
:1005200080E090E0ACD181E0F2D06091BA007091AF
:10053000BB008091BC009091BD00F6D520E030E07A
:1005400040E05BE3A7D620E030E048E453E4A2D6E5
:1005500020E030E040E752E49DD66093C6007093FF
:10056000C7008093C8009093C90020E030E44CE1BC
:1005700056E48CD6181664F480E090E4ACE1B6E45E
:100580008093C6009093C700A093C800B093C900A1
:10059000089582E991E09CD3181619060CF062C008
:1005A00082E991E0C6D3282F8093F2008295869548
:1005B0008695837090E09093F4008093F300039706
:1005C00009F050C0822F90E0AC0175E05595479539
:1005D0007A95E1F7417050705093F6004093F50022
:1005E0009C0164E0359527956A95E1F7217030709C
:1005F0003093F8002093F7008F7090709093FA007A
:100600008093F900FC01EE0FFF1FEE0FFF1F452B3B
:10061000A9F4E659FF4F80819181A281B381809333
:10062000D2009093D300A093D400B093D5008BE078
:1006300090E068E070E077DD5EDD0895E659FF4FF9
:1006400080819181A281B3818093D6009093D7005D
:10065000A093D800B093D9008DE090E06CE070E0FA
:1006600062DD49DD089595DF03DF7DDD08950F9399
:100670001F93789402E911E0C80140E051EE60E078
:1006800070E0A1D2E0919201F09193010280F38198
:10069000E02DC80160E670E049E050E009958DE08A
:1006A00061E09DD18CE061E09AD18AE061E097D170
:1006B0008BE061E094D188E061E091D189E061E074
:1006C0008ED11F910F910895823000F5E82FF0E050
:1006D000EE0FFF1FE350FF4F71836083882319F0F3
:1006E0008130A1F408C085B78C7F842B85BF8BB780
:1006F00080648BBF089585B7440F551F440F551F65
:10070000837F842B85BF8BB780688BBF0895E82FCC
:10071000823090F4882319F0813039F403C08BB70C
:100720008F7B02C08BB78F778BBFF0E0EE0FFF1F80
:10073000E350FF4F1182108208951F920F920FB65F
:100740000F9211242F933F934F935F936F937F9357
:100750008F939F93AF93BF93EF93FF938091FD008F
:100760009091FE00892B29F0E091FD00F091FE00B0
:100770000995FF91EF91BF91AF919F918F917F91DB
:100780006F915F914F913F912F910F900FBE0F90FE
:100790001F9018951F920F920FB60F9211242F934E
:1007A0003F934F935F936F937F938F939F93AF93F9
:1007B000BF93EF93FF938091FF0090910001892BED
:1007C00029F0E091FF00F09100010995FF91EF9170
:1007D000BF91AF919F918F917F916F915F914F9159
:1007E0003F912F910F900FBE0F901F9018951F9261
:1007F0000F920FB60F9211242F933F938F939F93D5
:10080000AF93BF938091050190910601A0910701DC
:10081000B0910801309109010196A11DB11D232F4E
:100820002D5F2D3720F02D570196A11DB11D20936E
:1008300009018093050190930601A0930701B093ED
:1008400008018091010190910201A0910301B091F2
:1008500004010196A11DB11D809301019093020135
:10086000A0930301B0930401BF91AF919F918F9129
:100870003F912F910F900FBE0F901F9018959B01E5
:10088000AC017FB7F8948091010190910201A09191
:100890000301B091040162B708B600FE05C06F3FC6
:1008A00019F00196A11DB11D7FBFBA2FA92F982F56
:1008B0008827860F911DA11DB11D62E0880F991F29
:1008C000AA1FBB1F6A95D1F7BC012EC0FFB7F894D1
:1008D0008091010190910201A0910301B091040166
:1008E000E2B708B600FE05C0EF3F19F00196A11D62
:1008F000B11DFFBFBA2FA92F982F88278E0F911DEA
:10090000A11DB11DE2E0880F991FAA1FBB1FEA9528
:10091000D1F7861B970B885E9340C0F22150304080
:100920004040504068517C4F21153105410551052B
:1009300069F60895789483B7826083BF83B7816036
:1009400083BF89B7816089BF1EBC8EB582608EBDB2
:100950008EB581608EBD8FB581608FBD85B5846099
:1009600085BD85B5806485BD329A319A309A379AB3
:100970001AB808951F93CF93DF93182FEB0161E00E
:100980002ED0209711F1CF3FD10511F1E12FF0E0EA
:10099000E459FF4F8491843051F0853071F08330F9
:1009A00089F48FB580688FBDDBBDCABD14C08FB51B
:1009B00080628FBDD9BDC8BD0EC085B5806285BDC2
:1009C000C3BD09C0C038D1051CF4812F60E002C04E
:1009D000812F61E043D0DF91CF911F910895CF9394
:1009E000DF93482F50E0CA01885A9F4FFC01349191
:1009F0004C5B5F4FFA018491882369F190E0880F86
:100A0000991FFC01EA5DFF4FA591B491FC01E05DE7
:100A1000FF4FC591D491662351F42FB7F8948C9170
:100A2000932F909589238C93888189230BC0623002
:100A300061F42FB7F8948C91932F909589238C9320
:100A40008881832B88832FBF06C09FB7F8948C9131
:100A5000832B8C939FBFDF91CF910895482F50E057
:100A6000CA0184599F4FFC012491CA01885A9F4FA3
:100A7000FC0194914C5B5F4FFA013491332331F1C7
:100A8000222381F0243039F0253049F0233051F40D
:100A90008FB58F7702C08FB58F7D8FBD03C085B5B1
:100AA0008F7D85BDE32FF0E0EE0FFF1FE05DFF4F70
:100AB000A591B4912FB7F894662321F48C91909569
:100AC000892302C08C91892B8C932FBF08950895A0
:100AD0001F920F920FB60F9211242F933F934F93B3
:100AE0008F939F93EF93FF934CB120914A013091E4
:100AF0004B012F5F3F4F2F73307080914C019091CD
:100B00004D012817390759F0E0914A01F0914B0146
:100B1000E65FFE4F408330934B0120934A01FF91E3
:100B2000EF919F918F914F913F912F910F900FBE19
:100B30000F901F901895E0919E01F0919F01E05C4D
:100B4000FF4F8191919120813181821B930B8F7393
:100B50009070892B09F0BBDF08951F920F920FB69A
:100B60000F9211242F933F938F939F93EF93FF93B3
:100B700020918E0130918F0180919001909191018F
:100B80002817390711F4559813C0E0919001F0919E
:100B90009101E25BFE4F2081809190019091910143
:100BA00001968F73907090939101809390012CB96E
:100BB000FF91EF919F918F913F912F910F900FBED9
:100BC0000F901F901895AF92BF92DF92EF92FF9215
:100BD0000F931F93CF93DF93EC017A018B01DD24F8
:100BE000403081EE580780E0680780E0780711F018
:100BF000DD24D39491E0A92EB12CEC89FD89DD2070
:100C000069F0C5010E8C02C0880F991F0A94E2F7A3
:100C1000808360E079E08DE390E005C0108260E8B9
:100C200074E88EE190E0A801970197D321503040FD
:100C300040405040569547953795279580E12030A4
:100C4000380720F0DD2011F0DD24D7CFE889F989BD
:100C50003083EA89FB892083EE89FF89408121E086
:100C600030E0C9010A8C02C0880F991F0A94E2F78C
:100C7000482B4083EE89FF894081C9010B8C02C05B
:100C8000880F991F0A94E2F7482B4083EE89FF8969
:100C90004081C9010C8C02C0880F991F0A94E2F7A9
:100CA000482B4083EE89FF8980810D8C02C0220F82
:100CB000331F0A94E2F7209528232083DF91CF91F8
:100CC0001F910F91FF90EF90DF90BF90AF9008952C
:100CD000DC011C96ED91FC911D97E05CFF4F21918A
:100CE000319180819181281B390B2F733070C9019C
:100CF0000895DC011C96ED91FC911D97E05CFF4F7F
:100D000020813181E054F040DF01AE5BBF4F8D9117
:100D10009C9111972817390719F42FEF3FEF07C05F
:100D20008D919C91E80FF91F8081282F30E0C90137
:100D30000895DC011C96ED91FC911D97E05CFF4F3E
:100D400020813181E054F040DF01AE5BBF4F8D91D7
:100D50009C9111972817390719F42FEF3FEF10C016
:100D60008D919C911197E80FF91F20818D919C9195
:100D7000119701968F73907011969C938E9330E02B
:100D8000C9010895FC0186859785DC01A05CBF4FF1
:100D9000FC01EE5BFF4F2D913C9111978081918179
:100DA00028173907C1F70895CF93DF93EC01EE853B
:100DB000FF85E05CFF4F20813181E054F0402F5FE0
:100DC0003F4F2F733070DF01AE5BBF4F8D919C9111
:100DD000119728173907D1F3E05CFF4F808191818B
:100DE000E054F040E80FF91F6083EE85FF85E05C7A
:100DF000FF4F31832083EE89FF89208181E090E0DD
:100E00000D8C02C0880F991F0A94E2F7282B2083CB
:100E100081E090E0DF91CF910895109295011092BA
:100E2000940188EE93E0A0E0B0E080939601909367
:100E30009701A0939801B09399018EEA90E0909366
:100E40009301809392018AE091E090939F018093B7
:100E50009E018EE491E09093A1018093A00180E433
:100E600090E09093A3018093A20189E290E0909397
:100E7000A5018093A4018BE290E09093A701809359
:100E8000A6018AE290E09093A9018093A8018CE2E8
:100E900090E09093AB018093AA0184E08093AC0131
:100EA00083E08093AD0187E08093AE0185E080937D
:100EB000AF0181E08093B0010895CF93DF933ADDD5
:100EC000D6DBCBE9D5E0CFDB2097E9F334DEFBCFEF
:100ED000CF92DF92EF92FF920F931F93CF93DF9306
:100EE0007C016B018A01C0E0D0E00FC0D6016D919A
:100EF0006D01D701ED91FC910190F081E02DC701CA
:100F00000995C80FD91F015010400115110571F73F
:100F1000CE01DF91CF911F910F91FF90EF90DF9065
:100F2000CF9008955058BB27AA270ED075C166D11F
:100F300030F06BD120F031F49F3F11F41EF45BC10F
:100F40000EF4E095E7FB51C1E92F77D180F3BA1792
:100F5000620773078407950718F071F49EF58FC137
:100F60000EF4E0950B2EBA2FA02D0B01B9019001C4
:100F70000C01CA01A0011124FF27591B99F0593F08
:100F800050F4503E68F11A16F040A22F232F342F50
:100F90004427585FF3CF469537952795A795F0409E
:100FA0005395C9F77EF41F16BA0B620B730B840BB3
:100FB000BAF09150A1F0FF0FBB1F661F771F881F6B
:100FC000C2F70EC0BA0F621F731F841F48F48795C3
:100FD00077956795B795F7959E3F08F0B3CF9395B2
:100FE000880F08F09927EE0F979587950895D9D027
:100FF00008F481E008950CD00FC107D140F0FED075
:1010000030F021F45F3F19F0F0C0511139C1F3C045
:1010100014D198F39923C9F35523B1F3951B550BBC
:10102000BB27AA2762177307840738F09F5F5F4FBB
:10103000220F331F441FAA1FA9F333D00E2E3AF0FC
:10104000E0E830D091505040E695001CCAF729D016
:10105000FE2F27D0660F771F881FBB1F2617370765
:101060004807AB07B0E809F0BB0B802DBF01FF2795
:1010700093585F4F2AF09E3F510568F0B6C000C1FB
:101080005F3FECF3983EDCF3869577956795B795CF
:10109000F7959F5FC9F7880F911D9695879597F9EA
:1010A0000895E1E0660F771F881FBB1F6217730763
:1010B0008407BA0720F0621B730B840BBA0BEE1F78
:1010C00088F7E095089504D06894B111D9C00895C7
:1010D000BCD088F09F5790F0B92F9927B751A0F056
:1010E000D1F0660F771F881F991F1AF0BA95C9F7BC
:1010F00012C0B13081F0C3D0B1E00895C0C0672FF5
:10110000782F8827B85F39F0B93FCCF3869577956B
:101110006795B395D9F73EF4909580957095619554
:101120007F4F8F4F9F4F0895E89409C097FB3EF47F
:1011300090958095709561957F4F8F4F9F4F992324
:10114000A9F0F92F96E9BB279395F69587957795A2
:101150006795B795F111F8CFFAF4BB0F11F460FF62
:101160001BC06F5F7F4F8F4F9F4F16C0882311F0BA
:1011700096E911C0772321F09EE8872F762F05C0CE
:10118000662371F096E8862F70E060E02AF09A9569
:10119000660F771F881FDAF7880F9695879597F95E
:1011A0000895990F0008550FAA0BE0E8FEEF1616F8
:1011B0001706E807F907C0F012161306E407F5074B
:1011C00098F0621B730B840B950B39F40A2661F0BF
:1011D000232B242B252B21F408950A2609F4A14062
:1011E000A6958FEF811D811D089597F99F6780E86F
:1011F00070E060E008959FEF80EC089500240A9469
:101200001616170618060906089500240A941216E1
:101210001306140605060895092E0394000C11F414
:10122000882352F0BB0F40F4BF2B11F460FF04C0C1
:101230006F5F7F4F8F4F9F4F089557FD9058440F1A
:10124000551F59F05F3F71F04795880F97FB991F25
:1012500061F09F3F79F087950895121613061406E2
:10126000551FF2CF4695F1DF08C01616170618066F
:10127000991FF1CF86957105610508940895E8944A
:10128000BB2766277727CB0197F908958ADF08F4F3
:101290008FEF08950BD0C0CFB1DF28F0B6DF18F084
:1012A000952309F0A2CFA7CF1124EACFC6DFA0F380
:1012B000959FD1F3950F50E0551F629FF001729FEB
:1012C000BB27F00DB11D639FAA27F00DB11DAA1F0A
:1012D000649F6627B00DA11D661F829F2227B00D57
:1012E000A11D621F739FB00DA11D621F839FA00DE2
:1012F000611D221F749F3327A00D611D231F849F32
:10130000600D211D822F762F6A2F11249F57504088
:101310008AF0E1F088234AF0EE0FFF1FBB1F661F23
:10132000771F881F91505040A9F79E3F510570F0DC
:101330005CCFA6CF5F3FECF3983EDCF386957795C4
:101340006795B795F795E7959F5FC1F7FE2B880FD7
:10135000911D9695879597F90895A1E21A2EAA1BDB
:10136000BB1BFD010DC0AA1FBB1FEE1FFF1FA21755
:10137000B307E407F50720F0A21BB30BE40BF50B52
:10138000661F771F881F991F1A9469F760957095DB
:10139000809590959B01AC01BD01CF010895EE0FA2
:0E13A000FF1F0590F491E02D0994F894FFCF03
:1013AE00496E696369616E646F0000000000008021
:1013BE00BB440000FA4400401C4500803B4500C081
:1013CE005A4500007A4500A08C4500E0AB45002050
:1013DE00CB4500C0DA450060EA450000FA4500D072
:1013EE00044600A00C460070144600000000D4060F
:0A13FE006807680699067906C20622
:00000001FF
