:100000003FC0F6C022C157C056C055C054C053C0EF
:1000100052C0AFC150C04FC04EC04DC04CC04BC00D
:100020004AC049C048C00000000037003400310019
:1000300000000000380035003200000000003600EB
:100040003300300004040404040404040202020225
:10005000020203030303030301020408102040808B
:100060000102040810200102040810200000000012
:100070000000000000030405000000000000000074
:1000800011241FBECFE5D4E0DEBFCDBF10E0A0E657
:10009000B0E0E6E4F4E002C005900D92A036B107AE
:1000A000D9F710E0A0E6B0E001C01D92A537B10776
:1000B000E1F75BD1C6C1A4CF809166009091670043
:1000C0000196909367008093660008958091640084
:1000D0009091650001969093650080936400089567
:1000E000809166009091670080509642D8F01092FF
:1000F0006700109266008091600090916100019706
:1001000041F480E061E0F4D0109261001092600050
:1001100009C080E060E0ECD081E090E09093610065
:1001200080936000809164009091650080509642B9
:10013000D8F0109265001092640080916200909156
:100140006300019741F483E161E0D2D01092630033
:1001500010926200089583E160E0CAD081E090E0EF
:1001600090936300809362000895789482E060E049
:1001700099D082E061E0BCD083E060E093D083E07E
:1001800061E0B6D080E066E670E043E050E00DD07C
:1001900081E06CE570E043E050E007D083E161E08E
:1001A00081D080E061E07ED00895823000F5E82FB4
:1001B000F0E0EE0FFF1FE859FF4F71836083882343
:1001C00019F08130A1F408C085B78C7F842B85BFDE
:1001D0008BB780648BBF089585B7440F551F440FBC
:1001E000551F837F842B85BF8BB780688BBF089595
:1001F0001F920F920FB60F9211242F933F934F939C
:100200005F936F937F938F939F93AF93BF93EF937E
:10021000FF938091680090916900892B29F0E0910B
:100220006800F09169000995FF91EF91BF91AF913E
:100230009F918F917F916F915F914F913F912F91FE
:100240000F900FBE0F901F9018951F920F920FB630
:100250000F9211242F933F934F935F936F937F934C
:100260008F939F93AF93BF93EF93FF9380916A0017
:1002700090916B00892B29F0E0916A00F0916B005E
:100280000995FF91EF91BF91AF919F918F917F91D0
:100290006F915F914F913F912F910F900FBE0F90F3
:1002A0001F901895482F50E0CA01885A9F4FFC01B3
:1002B00024914C5B5F4FFA0184918823C1F0E82FB1
:1002C000F0E0EE0FFF1FEA5DFF4FA591B4916623AA
:1002D00041F49FB7F8948C91209582238C939FBF13
:1002E00008959FB7F8948C91822B8C939FBF0895AB
:1002F000482F50E0CA0184599F4FFC012491CA0144
:10030000885A9F4FFC0134914C5B5F4FFA019491E6
:10031000992351F1222381F0243039F0253049F01E
:10032000233051F48FB58F7702C08FB58F7D8FBD8D
:1003300003C085B58F7D85BDE92FF0E0EE0FFF1F6F
:10034000E05DFF4FA591B491662341F49FB7F89407
:100350008C91309583238C939FBF08959FB7F89419
:100360008C91832B8C939FBF08954BD0FEDEB8DE1B
:10037000FECF1F920F920FB60F9211242F933F932F
:100380008F939F93AF93BF93809170009091710072
:10039000A0917200B0917300309174000196A11D7C
:1003A000B11D232F2D5F2D3720F02D570196A11D54
:1003B000B11D209374008093700090937100A093FE
:1003C0007200B093730080916C0090916D00A091C9
:1003D0006E00B0916F000196A11DB11D80936C005D
:1003E00090936D00A0936E00B0936F00BF91AF919A
:1003F0009F918F913F912F910F900FBE0F901F9063
:100400001895789483B7826083BF83B7816083BF78
:1004100089B7816089BF1EBC8EB582608EBD8EB5E6
:1004200081608EBD8FB581608FBD85B5846085BDCF
:1004300085B5806485BD329A319A309A379A1AB858
:060440000895F894FFCFBF
:00000001FF
