:1000000040C017C343C362C061C060C05FC05EC070
:100010005DC069C35BC0D8C41CC558C057C056C0BA
:1000200055C054C053C000000000370034003100F8
:1000300000000000380035003200000000003600EB
:100040003300300004040404040404040202020225
:10005000020203030303030301020408102040808B
:100060000102040810200102040810200000000012
:100070000000000000030405000000000000000074
:10008000890611241FBECFE5D4E0DEBFCDBF10E04E
:10009000A0E6B0E0E6EFF5E102C005900D92A03CCD
:1000A000B107D9F711E0A0ECB0E001C01D92A8396A
:1000B000B107E1F710E0C2E8D0E003C02297FE01EB
:1000C00094DAC038D107D1F774D693CA99CF80910A
:1000D000C0009091C100A091C200B091C3000196F0
:1000E000A11DB11D8093C0009093C100A093C200D8
:1000F000B093C3000895CF93DF93DB010D900020F0
:10010000E9F71197A61BB70BEC01E881F981028092
:10011000F381E02DAD010995DF91CF910895EF9224
:10012000FF920F931F93CF93DF93E090D800F0904E
:10013000D9000091DA001091DB00C801B70120E07E
:1001400030E040E050E058D8882309F471C0C8017D
:10015000B7012091C8003091C9004091CA00509168
:10016000CB00E5D77B018C016093D0007093D10068
:100170008093D2009093D30020E030E048EC52E42A
:100180008AD918163CF5C091C400D091C5002196BB
:10019000D093C500C093C4002197C801B70120E0E7
:1001A00030E04AE754E477D918162CF42496D0931B
:1001B000C500C093C4008091C4009091C5008F3FDA
:1001C000910549F144F18FEF90E09093C500809341
:1001D000C40021C0C801B70120E030E048EC52EC77
:1001E0000BD888234CF5C091C400D091C50021974D
:1001F000D093C500C093C4002196C801B70120E088
:1002000030E04AE754ECF8D788232CF42497D093B5
:10021000C500C093C4008091C4009091C5000597AB
:100220005CF485E090E09093C5008093C40004C026
:100230001092C5001092C40089E791E060E670E07A
:100240005ADF6091C4007091C50089E791E04AE0EF
:1002500050E0B1D66091C4007091C50089E006D32A
:10026000E090DC00F090DD000091DE001091DF00F6
:10027000C801B70120E030E040E050E0BDD788235E
:1002800009F471C0C801B7012091CC003091CD00B4
:100290004091CE005091CF004AD77B018C016093F2
:1002A000D4007093D5008093D6009093D70020E0BF
:1002B00030E048EC52E4EFD818163CF5C091C60087
:1002C000D091C7002196D093C700C093C600219754
:1002D000C801B70120E030E04AE754E4DCD8181642
:1002E0002CF42496D093C700C093C6008091C6001A
:1002F0009091C7008F3F910549F144F18FEF90E055
:100300009093C7008093C60021C0C801B70120E0C8
:1003100030E048EC52EC70D788234CF5C091C60011
:10032000D091C7002197D093C700C093C6002196F3
:10033000C801B70120E030E04AE754EC5DD78823DC
:100340002CF42497D093C700C093C6008091C600B8
:100350009091C70005975CF485E090E09093C7000A
:100360008093C60004C01092C7001092C60089E7AF
:1003700091E06EE670E0BFDE6091C6007091C7004C
:1003800089E791E04AE050E016D66091C60070918E
:10039000C7008AE06BD2DF91CF911F910F91FF9040
:1003A000EF900895EF92FF920F931F931092C00069
:1003B0001092C1001092C2001092C30087E6E82E8E
:1003C00080E0F82E80E0B70143E050E0F9D06AE029
:1003D00070E080E090E0CFD180E015D16091C00066
:1003E0007091C1008091C2009091C3006150704033
:1003F000804090409ED720E030E040E05BE34FD863
:1004000020E030E048EC52E44AD820E030E040E719
:1004100052E445D86093C8007093C9008093CA0025
:100420009093CB0009E711E0C8016BE770E063DE51
:100430004091C8005091C9006091CA007091CB00F2
:10044000C80122E030E062D61092C0001092C100D4
:100450001092C2001092C30081E0B70143E050E067
:10046000AFD06AE070E080E090E085D181E0CBD051
:100470006091C0007091C1008091C2009091C30052
:10048000615070408040904054D720E030E040E020
:100490005BE305D820E030E048EC52E400D820E0EF
:1004A00030E040E752E4FBD76093CC007093CD007E
:1004B0008093CE009093CF00C80160E970E01BDE0E
:1004C0004091CC005091CD006091CE007091CF0052
:1004D000C80122E030E01AD61F910F91FF90EF90F3
:1004E00008951F93282F162F8091E2009091E3002A
:1004F000892B19F4822F60E008C08091E000909170
:10050000E100892B31F4822F61E024D2812F60E059
:1005100005C0822F60E01ED2812F61E01BD21F91A7
:1005200008958BE090E068E070E0DBDF8DE090E024
:100530006CE070E0D6DF36DFF2DD08950F931F9395
:10054000789409E711E0C80140E855E260E070E006
:10055000B6D2C80164EA70E0CEDD8DE061E0BBD1C7
:100560008CE061E0B8D18AE061E0B5D18BE061E078
:10057000B2D188E061E0AFD189E061E0ACD180E048
:1005800090E7A4E1B6E48093D8009093D900A093BB
:10059000DA00B093DB008093DC009093DD00A09341
:1005A000DE00B093DF0081E090E09093E300809361
:1005B000E2009093E1008093E0001F910F91089575
:1005C000823000F5E82FF0E0EE0FFF1FEC51FF4FF7
:1005D00071836083882319F08130A1F408C085B746
:1005E0008C7F842B85BF8BB780648BBF089585B7C4
:1005F000440F551F440F551F837F842B85BF8BB736
:1006000080688BBF0895E82F823090F4882319F01A
:10061000813039F403C08BB78F7B02C08BB78F77E3
:100620008BBFF0E0EE0FFF1FEC51FF4F11821082E5
:1006300008951F920F920FB60F9211242F933F939C
:100640004F935F936F937F938F939F93AF93BF93DA
:10065000EF93FF938091E4009091E500892B29F0BE
:10066000E091E400F091E5000995FF91EF91BF91D1
:10067000AF919F918F917F916F915F914F913F913A
:100680002F910F900FBE0F901F9018951F920F92F1
:100690000FB60F9211242F933F934F935F936F9355
:1006A0007F938F939F93AF93BF93EF93FF9380912B
:1006B000E6009091E700892B29F0E091E600F091A7
:1006C000E7000995FF91EF91BF91AF919F918F91B5
:1006D0007F916F915F914F913F912F910F900FBE3E
:1006E0000F901F9018951F920F920FB60F92112422
:1006F0002F933F938F939F93AF93BF938091EC0081
:100700009091ED00A091EE00B091EF003091F000DB
:100710000196A11DB11D232F2D5F2D3720F02D57E0
:100720000196A11DB11D2093F0008093EC009093E1
:10073000ED00A093EE00B093EF008091E80090915F
:10074000E900A091EA00B091EB000196A11DB11D56
:100750008093E8009093E900A093EA00B093EB0047
:10076000BF91AF919F918F913F912F910F900FBEAD
:100770000F901F9018959B01AC017FB7F894809162
:10078000E8009091E900A091EA00B091EB0062B717
:1007900008B600FE05C06F3F19F00196A11DB11DFE
:1007A0007FBFBA2FA92F982F8827860F911DA11DD3
:1007B000B11D62E0880F991FAA1FBB1F6A95D1F770
:1007C000BC012EC0FFB7F8948091E8009091E90039
:1007D000A091EA00B091EB00E2B708B600FE05C0B8
:1007E000EF3F19F00196A11DB11DFFBFBA2FA92F30
:1007F000982F88278E0F911DA11DB11DE2E0880F53
:10080000991FAA1FBB1FEA95D1F7861B970B885E1D
:100810009340C0F2215030404040504068517C4FDE
:10082000211531054105510569F60895789483B77E
:10083000826083BF83B7816083BF89B7816089BFCE
:100840001EBC8EB582608EBD8EB581608EBD8FB5AB
:1008500081608FBD85B5846085BD85B5806485BDAB
:10086000329A319A309A379A1AB808951F93CF93D3
:10087000DF93182FEB0161E02ED0209711F1CF3FCD
:10088000D10511F1E12FF0E0E459FF4F849184305C
:1008900051F0853071F0833089F48FB580688FBD59
:1008A000DBBDCABD14C08FB580628FBDD9BDC8BDC8
:1008B0000EC085B5806285BDC3BD09C0C038D105F5
:1008C0001CF4812F60E002C0812F61E043D0DF91F2
:1008D000CF911F910895CF93DF93482F50E0CA0125
:1008E000885A9F4FFC0134914C5B5F4FFA01849111
:1008F000882369F190E0880F991FFC01EA5DFF4FA2
:10090000A591B491FC01E05DFF4FC591D4916623A0
:1009100051F42FB7F8948C91932F909589238C9351
:10092000888189230BC0623061F42FB7F8948C91D1
:10093000932F909589238C938881832B88832FBF55
:1009400006C09FB7F8948C91832B8C939FBFDF9147
:10095000CF910895482F50E0CA0184599F4FFC0160
:100960002491CA01885A9F4FFC0194914C5B5F4FC0
:10097000FA013491332331F1222381F0243039F00C
:10098000253049F0233051F48FB58F7702C08FB5F1
:100990008F7D8FBD03C085B58F7D85BDE32FF0E0D2
:1009A000EE0FFF1FE05DFF4FA591B4912FB7F894B4
:1009B000662321F48C919095892302C08C91892B18
:1009C0008C932FBF089508951F920F920FB60F9228
:1009D00011242F933F934F938F939F93EF93FF9304
:1009E0004CB120913101309132012F5F3F4F2F7375
:1009F000307080913301909134012817390759F0F4
:100A0000E0913101F0913201EF50FF4F408330937C
:100A1000320120933101FF91EF919F918F914F917E
:100A20003F912F910F900FBE0F901F901895E0915E
:100A30008501F0918601E05CFF4F819191912081C9
:100A40003181821B930B8F739070892B09F0BBDF70
:100A500008951F920F920FB60F9211242F933F9378
:100A60008F939F93EF93FF932091750130917601BF
:100A700080917701909178012817390711F45598E2
:100A800013C0E0917701F0917801EB5CFE4F20817B
:100A9000809177019091780101968F739070909377
:100AA0007801809377012CB9FF91EF919F918F91FD
:100AB0003F912F910F900FBE0F901F901895AF92FE
:100AC000BF92DF92EF92FF920F931F93CF93DF932A
:100AD000EC017A018B01DD24403081EE580780E083
:100AE000680780E0780711F0DD24D39491E0A92E07
:100AF000B12CEC89FD89DD2069F0C5010E8C02C0A6
:100B0000880F991F0A94E2F7808360E079E08DE313
:100B100090E005C0108260E874E88EE190E0A801E2
:100B200097013FD521503040404050405695479561
:100B30003795279580E12030380720F0DD2011F02F
:100B4000DD24D7CFE889F9893083EA89FB892083BE
:100B5000EE89FF89408121E030E0C9010A8C02C0A2
:100B6000880F991F0A94E2F7482B4083EE89FF898A
:100B70004081C9010B8C02C0880F991F0A94E2F7CB
:100B8000482B4083EE89FF894081C9010C8C02C04B
:100B9000880F991F0A94E2F7482B4083EE89FF895A
:100BA00080810D8C02C0220F331F0A94E2F720953A
:100BB00028232083DF91CF911F910F91FF90EF9019
:100BC000DF90BF90AF900895DC011C96ED91FC91F1
:100BD0001D97E05CFF4F2191319180819181281B0D
:100BE000390B2F733070C9010895DC011C96ED910B
:100BF000FC911D97E05CFF4F20813181E054F04073
:100C0000DF01AE5BBF4F8D919C911197281739077B
:100C100019F42FEF3FEF07C08D919C91E80FF91F5A
:100C20008081282F30E0C9010895DC011C96ED91E8
:100C3000FC911D97E05CFF4F20813181E054F04032
:100C4000DF01AE5BBF4F8D919C911197281739073B
:100C500019F42FEF3FEF10C08D919C911197E80F81
:100C6000F91F20818D919C91119701968F7390703F
:100C700011969C938E9330E0C9010895FC018685FE
:100C80009785DC01A05CBF4FFC01EE5BFF4F2D910F
:100C90003C9111978081918128173907C1F70895F8
:100CA000CF93DF93EC01EE85FF85E05CFF4F208161
:100CB0003181E054F0402F5F3F4F2F733070DF01E0
:100CC000AE5BBF4F8D919C91119728173907D1F3D7
:100CD000E05CFF4F80819181E054F040E80FF91F04
:100CE0006083EE85FF85E05CFF4F31832083EE89D2
:100CF000FF89208181E090E00D8C02C0880F991F50
:100D00000A94E2F7282B208381E090E0DF91CF91D5
:100D1000089510927C0110927B0188EE93E0A0E090
:100D2000B0E080937D0190937E01A0937F01B0930A
:100D3000800184EB90E090937A018093790181EFB8
:100D400090E0909386018093850185E391E09093F4
:100D500088018093870180E490E090938A018093DA
:100D6000890189E290E090938C0180938B018BE262
:100D700090E090938E0180938D018AE290E09093B1
:100D8000900180938F018CE290E090939201809388
:100D9000910184E08093930183E08093940187E044
:100DA0008093950185E08093960181E0809397017F
:100DB0000895CF93DF933ADDC1DBC7E1D5E0B1DB26
:100DC0002097E9F334DEFBCFCF92DF92EF92FF92D0
:100DD0000F931F93CF93DF937C016B018A01C0E0D7
:100DE000D0E00FC0D6016D916D01D701ED91FC915E
:100DF0000190F081E02DC7010995C80FD91F01505E
:100E000010400115110571F7CE01DF91CF911F91AF
:100E10000F91FF90EF90DF90CF900895EF92FF92A7
:100E20000F931F938C01DC01ED91FC910190F081F7
:100E3000E02D6DE009957C01D801ED91FC910190C8
:100E4000F081E02DC8016AE009959C012E0D3F1D3F
:100E5000C9011F910F91FF90EF9008954F925F92FB
:100E60007F928F929F92AF92BF92CF92DF92EF923A
:100E7000FF920F931F93DF93CF93CDB7DEB7A19768
:100E80000FB6F894DEBF0FBECDBF2C01742ECB0180
:100E9000223008F42AE019A231E2C32ED12CCC0E64
:100EA000DD1E822E9924AA24BB24672D752FA5014F
:100EB000940177D379018A01C801B701A501940192
:100EC00051D3472D461B0894C108D1084A3014F469
:100ED000405D01C0495CF6014083E114F104010565
:100EE000110521F07E2C5F2DC801DFCFC201B601B4
:100EF00002D9A1960FB6F894DEBF0FBECDBFCF9139
:100F0000DF911F910F91FF90EF90DF90CF90BF90F6
:100F1000AF909F908F907F905F904F900895DC01ED
:100F20002115310541F4ED91FC910190F081E02D06
:100F3000642F0995089592DF0895CF92DF92EF9282
:100F4000FF920F931F93CF93DF93EC016A017B0114
:100F50002115310541F4E881F9810190F081E02DFE
:100F6000642F09951DC02A303105C9F477FF16C0DA
:100F7000E881F9810190F081E02D6DE209958C0105
:100F800044275527BA014C195D096E097F09CE0126
:100F90002AE064DF9801280F391F03C02AE05EDFD2
:100FA0009C01C901DF91CF911F910F91FF90EF90AC
:100FB000DF90CF900895CF92DF92EF92FF920F9340
:100FC0001F936C017B019A010027F7FC0095102FFD
:100FD000B801A701B2DF8C01C60120DF080F191F7D
:100FE000C8011F910F91FF90EF90DF90CF9008956F
:100FF0007F928F929F92AF92BF92CF92DF92EF92A9
:10100000FF920F931F93CF93DF934C017A018B01D3
:10101000722ECB01BA0120E030E040E050E0ECD08D
:1010200087FD03C0C0E0D0E00EC0D401ED91FC917B
:101030000190F081E02DC4016DE20995EC0117FBF0
:10104000109517F9109520E030E040E05FE3AA2406
:101050000AC0CA01B90120E030E040E251E4D0D03A
:101060009B01AC01A394A714A0F3C801B70160D001
:101070005B016C0132D17B018C01C401B801A70175
:101080002AE030E04CDFC80FD91F772031F0C401CF
:101090006EEA70E030D8C80FD91FC801B70149D136
:1010A0009B01AC01C601B50142D01FC020E030E079
:1010B00040E251E4F4D17B018C010AD15B016C0167
:1010C000CC24B7FCC094DC2CC401B601A5012AE0F5
:1010D00030E033DFC80FD91FC601B5012CD19B0109
:1010E000AC01C801B70123D07A947720F9F6CE017C
:1010F000DF91CF911F910F91FF90EF90DF90CF90F4
:10110000BF90AF909F908F907F900895EF92FF9245
:101110000F931F937C016CDF8C01C7017FDE080FEA
:10112000191FC8011F910F91FF90EF90089550581B
:10113000BB27AA270ED075C166D130F06BD120F045
:1011400031F49F3F11F41EF45BC10EF4E095E7FB10
:1011500051C1E92F77D180F3BA176207730784076B
:10116000950718F071F49EF58FC10EF4E0950B2EE3
:10117000BA2FA02D0B01B90190010C01CA01A001E9
:101180001124FF27591B99F0593F50F4503E68F144
:101190001A16F040A22F232F342F4427585FF3CF85
:1011A000469537952795A795F0405395C9F77EF456
:1011B0001F16BA0B620B730B840BBAF09150A1F09F
:1011C000FF0FBB1F661F771F881FC2F70EC0BA0F25
:1011D000621F731F841F48F4879577956795B795AD
:1011E000F7959E3F08F0B3CF9395880F08F09927A5
:1011F000EE0F979587950895D9D008F481E008956A
:101200000CD00FC107D140F0FED030F021F45F3F89
:1012100019F0F0C0511139C1F3C014D198F39923DA
:10122000C9F35523B1F3951B550BBB27AA276217AA
:101230007307840738F09F5F5F4F220F331F441FEF
:10124000AA1FA9F333D00E2E3AF0E0E830D0915027
:101250005040E695001CCAF729D0FE2F27D0660F14
:10126000771F881FBB1F261737074807AB07B0E853
:1012700009F0BB0B802DBF01FF2793585F4F2AF069
:101280009E3F510568F0B6C000C15F3FECF3983E49
:10129000DCF3869577956795B795F7959F5FC9F7C6
:1012A000880F911D9695879597F90895E1E0660F4F
:1012B000771F881FBB1F621773078407BA0720F0C8
:1012C000621B730B840BBA0BEE1F88F7E095089531
:1012D00004D06894B111D9C00895BCD088F09F574C
:1012E00090F0B92F9927B751A0F0D1F0660F771F72
:1012F000881F991F1AF0BA95C9F712C0B13081F052
:10130000C3D0B1E00895C0C0672F782F8827B85F99
:1013100039F0B93FCCF3869577956795B395D9F7B2
:101320003EF490958095709561957F4F8F4F9F4FBC
:101330000895E89409C097FB3EF4909580957095C8
:1013400061957F4F8F4F9F4F9923A9F0F92F96E911
:10135000BB279395F695879577956795B795F11186
:10136000F8CFFAF4BB0F11F460FF1BC06F5F7F4F23
:101370008F4F9F4F16C0882311F096E911C0772335
:1013800021F09EE8872F762F05C0662371F096E83E
:10139000862F70E060E02AF09A95660F771F881F0D
:1013A000DAF7880F9695879597F90895990F0008B1
:1013B000550FAA0BE0E8FEEF16161706E807F90727
:1013C000C0F012161306E407F50798F0621B730BC2
:1013D000840B950B39F40A2661F0232B242B252B43
:1013E00021F408950A2609F4A140A6958FEF811DE6
:1013F000811D089597F99F6780E870E060E0089587
:101400009FEF80EC089500240A941616170618061C
:101410000906089500240A941216130614060506F8
:101420000895092E0394000C11F4882352F0BB0F89
:1014300040F4BF2B11F460FF04C06F5F7F4F8F4FEC
:101440009F4F089557FD9058440F551F59F05F3F27
:1014500071F04795880F97FB991F61F09F3F79F0D6
:1014600087950895121613061406551FF2CF469558
:10147000F1DF08C0161617061806991FF1CF8695DA
:101480007105610508940895E894BB2766277727BE
:10149000CB0197F908958ADF08F48FEF08950BD0F8
:1014A000C0CFB1DF28F0B6DF18F0952309F0A2CF46
:1014B000A7CF1124EACFC6DFA0F3959FD1F3950FF4
:1014C00050E0551F629FF001729FBB27F00DB11DC8
:1014D000639FAA27F00DB11DAA1F649F6627B00D58
:1014E000A11D661F829F2227B00DA11D621F739F41
:1014F000B00DA11D621F839FA00D611D221F749F4F
:101500003327A00D611D231F849F600D211D822F95
:10151000762F6A2F11249F5750408AF0E1F08823DC
:101520004AF0EE0FFF1FBB1F661F771F881F9150E9
:101530005040A9F79E3F510570F05CCFA6CF5F3FAA
:10154000ECF3983EDCF3869577956795B795F7951C
:10155000E7959F5FC1F7FE2B880F911D96958795A4
:1015600097F90895629FD001739FF001829FE00D6B
:10157000F11D649FE00DF11D929FF00D839FF00D12
:10158000749FF00D659FF00D9927729FB00DE11DBE
:10159000F91F639FB00DE11DF91FBD01CF0111249B
:1015A0000895A1E21A2EAA1BBB1BFD010DC0AA1FA4
:1015B000BB1FEE1FFF1FA217B307E407F50720F0BC
:1015C000A21BB30BE40BF50B661F771F881F991F37
:1015D0001A9469F760957095809590959B01AC0180
:1015E000BD01CF010895EE0FFF1F0590F491E02D8E
:0615F0000994F894FFCFFE
:1015F60050574D2045737175657264613D005057B3
:101606004D20446972656974613D0056656C6F636F
:1016160069646164652045737175657264613D0036
:1016260056656C6F636964616465204469726569B7
:1016360074613D00496E696369616E646F002E00D6
:10164600000000005006E406E4051506F5053E0612
:00000001FF
