:100000003FC059C058C057C056C055C054C053C057
:1000100052C067C050C04FC04EC04DC04CC04BC056
:100020004AC049C048C00000000037003400310019
:1000300000000000380035003200000000003600EB
:100040003300300004040404040404040202020225
:10005000020203030303030301020408102040808B
:100060000102040810200102040810200000000012
:100070000000000000030405000000000000000074
:1000800011241FBECFE5D4E0DEBFCDBF10E0A0E657
:10009000B0E0EAE3F3E002C005900D92A036B107AC
:1000A000D9F710E0A0E6B0E001C01D92A936B10773
:1000B000E1F73DD140C1A4CF83E161E0FBD068EE20
:1000C00073E080E090E055D083E160E0F3D068EE2B
:1000D00073E080E090E04DD0089583E161E0C4D00A
:1000E00008951F920F920FB60F9211242F933F93F2
:1000F0008F939F93AF93BF9380916400909165001D
:10010000A0916600B0916700309168000196A11D32
:10011000B11D232F2D5F2D3720F02D570196A11DE6
:10012000B11D209368008093640090936500A093B4
:100130006600B09367008091600090916100A0918B
:100140006200B09163000196A11DB11D8093600013
:1001500090936100A0936200B0936300BF91AF9150
:100160009F918F913F912F910F900FBE0F901F90F5
:1001700018959B01AC017FB7F89480916000909135
:100180006100A0916200B091630062B708B600FE02
:1001900005C06F3F19F00196A11DB11D7FBFBA2F99
:1001A000A92F982F8827860F911DA11DB11D62E0F0
:1001B000880F991FAA1FBB1F6A95D1F7BC012EC0DB
:1001C000FFB7F8948091600090916100A091620067
:1001D000B0916300E2B708B600FE05C0EF3F19F02A
:1001E0000196A11DB11DFFBFBA2FA92F982F8827F7
:1001F0008E0F911DA11DB11DE2E0880F991FAA1F4E
:10020000BB1FEA95D1F7861B970B885E9340C0F21F
:10021000215030404040504068517C4F21153105FD
:100220004105510569F60895789483B7826083BFCC
:1002300083B7816083BF89B7816089BF1EBC8EB5DB
:1002400082608EBD8EB581608EBD8FB581608FBDA1
:1002500085B5846085BD85B5806485BD329A319A47
:10026000309A379A1AB80895482F50E0CA01885A30
:100270009F4FFC0124914C5B5F4FFA0184918823CE
:10028000C1F0E82FF0E0EE0FFF1FEA5DFF4FA591F0
:10029000B491662341F49FB7F8948C912095822302
:1002A0008C939FBF08959FB7F8948C91822B8C9369
:1002B0009FBF0895482F50E0CA0184599F4FFC0109
:1002C0002491CA01885A9F4FFC0134914C5B5F4FC7
:1002D000FA019491992351F1222381F0243039F0CD
:1002E000253049F0233051F48FB58F7702C08FB598
:1002F0008F7D8FBD03C085B58F7D85BDE92FF0E073
:10030000EE0FFF1FE05DFF4FA591B491662341F40E
:100310009FB7F8948C91309583238C939FBF089559
:100320009FB7F8948C91832B8C939FBF08957CDFAB
:0A033000D4DEC2DEFECFF894FFCF4A
:00000001FF
