:1000000040C0E4C010C162C061C060C05FC05EC0DB
:100010005DC036C15BC05AC259C058C057C056C037
:1000200055C054C053C000000000370034003100F8
:1000300000000000380035003200000000003600EB
:100040003300300004040404040404040202020225
:10005000020203030303030301020408102040808B
:100060000102040810200102040810200000000012
:100070000000000000030405000000000000000074
:100080005F0311241FBECFE5D4E0DEBFCDBF10E07B
:10009000A0E6B0E0EAE4FAE002C005900D92AA38CA
:1000A000B107D9F711E0AAE8B0E001C01D92A23370
:1000B000B107E1F710E0C2E8D0E003C02297FE01EB
:1000C000BED4C038D107D1F734D3BDC499CF809105
:1000D0008C0090918D00019690938D0080938C0000
:1000E000089580918A0090918B00019690938B00E7
:1000F00080938A0008950F931F930FE111E0C801C8
:1001000060E670E051D360918C0070918D00C80161
:100110004AE050E03ED4C8016CE670E045D36091FF
:100120008A0070918B00C8014AE050E032D468EE3A
:1001300073E080E090E0ECD01F910F9108958FE183
:1001400091E040E855E260E070E0F0D1789482E020
:1001500060E059D182E061E07CD183E060E053D17E
:1001600083E061E076D180E061E770E043E050E059
:100170000AD081E067E670E043E050E004D083E11C
:1001800061E041D10895823000F5E82FF0E0EE0FF4
:10019000FF1FE257FF4F71836083882319F081307E
:1001A000A1F408C085B78C7F842B85BF8BB7806492
:1001B0008BBF089585B7440F551F440F551F837F8C
:1001C000842B85BF8BB780688BBF08951F920F92D9
:1001D0000FB60F9211242F933F934F935F936F931A
:1001E0007F938F939F93AF93BF93EF93FF938091F0
:1001F0008E0090918F00892B29F0E0918E00F09174
:100200008F000995FF91EF91BF91AF919F918F91D1
:100210007F916F915F914F913F912F910F900FBE02
:100220000F901F9018951F920F920FB60F921124E6
:100230002F933F934F935F936F937F938F939F93EE
:10024000AF93BF93EF93FF938091900090919100B3
:10025000892B29F0E0919000F09191000995FF9190
:10026000EF91BF91AF919F918F917F916F915F912E
:100270004F913F912F910F900FBE0F901F901895A7
:100280001F920F920FB60F9211242F933F938F93CB
:100290009F93AF93BF938091960090919700A09108
:1002A0009800B091990030919A000196A11DB11D5E
:1002B000232F2D5F2D3720F02D570196A11DB11D45
:1002C00020939A008093960090939700A0939800B3
:1002D000B09399008091920090919300A091940026
:1002E000B09195000196A11DB11D8093920090934D
:1002F0009300A0939400B0939500BF91AF919F910C
:100300008F913F912F910F900FBE0F901F901895D6
:100310009B01AC017FB7F89480919200909193007B
:10032000A0919400B091950062B708B600FE05C098
:100330006F3F19F00196A11DB11D7FBFBA2FA92FE4
:10034000982F8827860F911DA11DB11D62E0880F8F
:10035000991FAA1FBB1F6A95D1F7BC012EC0FFB71A
:10036000F8948091920090919300A0919400B091A4
:100370009500E2B708B600FE05C0EF3F19F0019600
:10038000A11DB11DFFBFBA2FA92F982F88278E0F4F
:10039000911DA11DB11DE2E0880F991FAA1FBB1F6F
:1003A000EA95D1F7861B970B885E9340C0F22150E7
:1003B00030404040504068517C4F21153105410587
:1003C000510569F60895789483B7826083BF83B737
:1003D000816083BF89B7816089BF1EBC8EB5826092
:1003E0008EBD8EB581608EBD8FB581608FBD85B5A8
:1003F000846085BD85B5806485BD329A319A309A16
:10040000379A1AB80895482F50E0CA01885A9F4F6A
:10041000FC0124914C5B5F4FFA0184918823C1F069
:10042000E82FF0E0EE0FFF1FEA5DFF4FA591B491BA
:10043000662341F49FB7F8948C91209582238C9386
:100440009FBF08959FB7F8948C91822B8C939FBF88
:100450000895482F50E0CA0184599F4FFC01249110
:10046000CA01885A9F4FFC0134914C5B5F4FFA01DF
:100470009491992351F1222381F0243039F02530D1
:1004800049F0233051F48FB58F7702C08FB58F7D3F
:100490008FBD03C085B58F7D85BDE92FF0E0EE0FE0
:1004A000FF1FE05DFF4FA591B491662341F49FB714
:1004B000F8948C91309583238C939FBF08959FB7B8
:1004C000F8948C91832B8C939FBF08951F920F9269
:1004D0000FB60F9211242F933F934F938F939F93B7
:1004E000EF93FF934CB1E0911B01F0911C01319609
:1004F0009F012F773070319780911D0190911E01DF
:100500002817390739F0E556FF4F408330931C0117
:1005100020931B01FF91EF919F918F914F913F91FC
:100520002F910F900FBE0F901F901895CF93DF93D0
:10053000EC019A01AB01E885F985203081EE38079E
:1005400080E0480780E0580709F447C081E090E068
:100550000A8802C0880F991F0A94E2F7808360E03E
:1005600079E08DE390E04ED2215030404040504041
:10057000CA01B90122E030E040E050E043D2EC8112
:10058000FD813083EE81FF812083EA85FB85208118
:1005900041E050E0CA010E8402C0880F991F0A94FE
:1005A000E2F7282B2083EA85FB852081CA010F848E
:1005B00002C0880F991F0A94E2F7282B2083EA854E
:1005C000FB858081088802C0440F551F0A94E2F71A
:1005D000842B8083DF91CF910895108220E130E059
:1005E000CECFDC011296ED91FC911397E058FF4FAE
:1005F0002191319180819181281B390B2F773070A7
:10060000C9010895DC011296ED91FC911397EE5704
:10061000FF4F2081318192918291E058F040821702
:10062000930719F42FEF3FEF05C0E20FF31F80810E
:10063000282F30E0C9010895DC011296ED91FC915C
:100640001397DF01AE57BF4F2D913C911197E058A2
:10065000FF4F80819181E058F0408217930719F491
:100660002FEF3FEF0BC0E20FF31F80812F5F3F4F53
:100670002F7730702D933C93282F30E0C9010895D7
:10068000DC011296ED91FC911397EE57FF4F80819C
:100690009181929382930895FC01A085B18521896F
:1006A0008C9190E0022E02C0959587950A94E2F70E
:1006B00080FFF6CF0484F585E02D608308958CE7F4
:1006C00090E09093200180931F018BE990E090933C
:1006D00022018093210180E490E090932401809393
:1006E000230189E290E090932601809325018BE21B
:1006F00090E090932801809327018AE290E0909304
:100700002A01809329018CE290E090932C01809340
:100710002B0184E080932D0183E080932E0187E0FC
:1007200080932F0185E08093300181E08093310137
:10073000089549DE04DDDFDCFECF0F931F93CF93D6
:10074000DF938C01EB0109C02196D801ED91FC915A
:100750000190F081E02DC801099568816623A1F719
:10076000DF91CF911F910F910895EF92FF920F9318
:100770001F93CF93DF938C017B01EA010CC0D7015B
:100780006D917D01D801ED91FC910190F081E02DFA
:10079000C80109952197209791F7DF91CF911F917B
:1007A0000F91FF90EF900895DC01ED91FC91028094
:1007B000F381E02D099508952F923F924F925F9219
:1007C0006F927F928F929F92AF92BF92CF92DF9261
:1007D000EF92FF920F931F93DF93CF93CDB7DEB7C6
:1007E000A0970FB6F894DEBF0FBECDBF1C016A0103
:1007F0007B01411551056105710541F440E350E06D
:1008000060E070E020E030E07BD053C08824992481
:100810005401422E55246624772401E010E00C0F89
:100820001D1F080D191DC701B601A3019201C8D0F3
:10083000F80160830894811C911CA11CB11CC701A4
:10084000B601A3019201BCD0C901DA016C017D019E
:10085000C114D104E104F10401F781E0E82EF12C88
:10086000EC0EFD1EE80CF91C3E010894611C711C85
:10087000D501C4010197A109B1096C01C818D908B3
:1008800015C0F601EE0DFF1D40814A3010F4405DA9
:1008900001C0495C552747FD5095652F752FC10153
:1008A00020E030E02DD00894E108F1086E147F04B8
:1008B00041F7A0960FB6F894DEBF0FBECDBFCF9123
:1008C000DF911F910F91FF90EF90DF90CF90BF903D
:1008D000AF909F908F907F906F905F904F903F90E0
:1008E0002F900895DC012115310541F4ED91FC9123
:1008F0000190F081E02D642F099508955DDF089542
:10090000EF92FF920F931F93CF93DF93EC017A0145
:100910008B012115310541F4E881F9810190F081C5
:10092000E02D642F099519C02A303105A9F477FF0D
:100930000FC04DE250E060E070E020E030E0E0DF2A
:1009400010950095F094E094E11CF11C011D111D1F
:10095000CE01B801A7012AE02FDFDF91CF911F91CF
:100960000F91FF90EF9008950F931F938C014DE02E
:1009700050E060E070E020E030E0C2DFC8014AE013
:1009800050E060E070E020E030E0BADF1F910F91AE
:100990000895CF92DF92EF92FF920F931F938C01F5
:1009A0009A016B01EE24FF24B701A6019BDFC80169
:1009B000DBDF1F910F91FF90EF90DF90CF900895B4
:1009C000A1E21A2EAA1BBB1BFD010DC0AA1FBB1F53
:1009D000EE1FFF1FA217B307E407F50720F0A21BC5
:1009E000B30BE40BF50B661F771F881F991F1A9432
:1009F00069F760957095809590959B01AC01BD015C
:100A0000CF01089597FB092E05260ED057FD04D07F
:100A1000D7DF0AD0001C38F45095409530952195C9
:100A20003F4F4F4F5F4F0895F6F790958095709523
:100A300061957F4F8F4F9F4F0895EE0FFF1F0590D9
:0A0A4000F491E02D0994F894FFCF23
:100A4A00436F6E7461646F72523D2000436F6E741F
:100A5A0061646F724C3D2000000000004C039D034E
:0A0A6A00B503F1021C030203400370
:00000001FF
