:1000000002C1000066C4000095C40000C4C4000022
:10001000F3C4000022C5000051C5000080C50000E7
:10002000AFC500001DC100001BC1000019C10000C8
:1000300017C1000015C1000013C1000011C100006C
:100040000FC100000DC100000BC1000009C100007C
:1000500007C1000005C1000003C10000C2C50000C7
:10006000FFC000000C94B8080C94E009F9C000002F
:10007000F7C00000F5C00000F3C00000F1C00000B0
:10008000EFC00000EDC00000EBC00000E9C00000C0
:100090000C94F1080C941F0AE3C00000E1C00000BA
:1000A000DFC00000DDC00000DBC00000D9C00000E0
:1000B000D7C00000D5C00000D3C00000D1C00000F0
:1000C000CFC00000CDC00000CBC000000C942A09B6
:1000D0000C945E0AC5C000000C9463090C949D0A40
:1000E000BFC0000000002100240027002A002D00CE
:1000F0003000330001010000040107010A01000083
:100100002200250028002B002E00310034000201BF
:100110000000050108010B0100002000230026005B
:1001200029002C002F00320000010000030106010D
:10013000090105050505070508080808020202026D
:100140000A0A080804040404010101010101010173
:100150000303030303030303040707070C0C0C0C3E
:100160000C0C0C0C02020202060606060606060627
:100170000B0B0B0B0B0B0B0B0102102020080810B4
:100180002040102040800201020108040201010207
:1001900004081020408080402010080402018004E0
:1001A000020180402010080402010804020101023B
:1001B0000408102040800102040810204080000044
:1001C000090A02080B0C0D070603040100000000D9
:1001D000000000000000000000000000000000001F
:1001E0000000000000000000000011100F000000DF
:1001F00000000000000000000000000000000000FF
:1002000000000000060C11241FBECFEFD1E2DEBFBC
:10021000CDBF00E00CBF12E0A0E0B2E0E2E9F2E204
:1002200000E00BBF02C007900D92A036B107D9F7CE
:100230001BBE15E0A0E6B2E001C01D92A933B107D4
:10024000E1F712E0C6E0D2E004C02297FE010E946E
:100250004311C430D107C9F70E94240D0C944711F3
:10026000CFCE8091600290916102A0916202B09124
:1002700063020196A11DB11D8093600290936102FB
:10028000A0936202B09363020895CF93DF93DB01E2
:100290000D900020E9F71197A61BB70BEC01E88140
:1002A000F9810280F381E02DAD011995DF91CF91A5
:1002B0000895EF92FF920F931F93CF93DF93E090F7
:1002C0007802F090790200917A0210917B02C801C5
:1002D000B70120E030E040E050E00E944A0F882360
:1002E00009F476C0C801B701209168023091690213
:1002F00040916A0250916B020E94E50E7B018C01D5
:1003000060937002709371028093720290937302F3
:1003100020E030E048EC52E40E949910181644F5B1
:10032000C0916402D09165022196D0936502C0937A
:1003300064022197C801B70120E030E04AE754E4A5
:100340000E94991018162CF42496D0936502C0933D
:10035000640280916402909165028F3F910559F18A
:1003600054F18FEF90E0909365028093640223C074
:10037000C801B70120E030E048EC52EC0E944A0F7F
:10038000882354F5C0916402D09165022197D093DF
:100390006502C09364022196C801B70120E030E0F5
:1003A0004AE754EC0E944A0F88232CF42497D093F8
:1003B0006502C09364028091640290916502059782
:1003C0005CF485E090E0909365028093640204C041
:1003D00010926502109264028DEB94E060E072E08E
:1003E00054DF60916402709165028DEB94E04AE005
:1003F00050E00E94280E609164027091650289E0CD
:10040000F3D4E0907C02F0907D0200917E02109186
:100410007F02C801B70120E030E040E050E00E94D8
:100420004A0F882309F476C0C801B70120916C02F5
:1004300030916D0240916E0250916F020E94E50E64
:100440007B018C0160937402709375028093760235
:100450009093770220E030E048EC52E40E9499103B
:10046000181644F5C0916602D09167022196D09388
:100470006702C09366022197C801B70120E030E00F
:100480004AE754E40E94991018162CF42496D0934D
:100490006702C093660280916602909167028F3F67
:1004A000910559F154F18FEF90E09093670280939A
:1004B000660223C0C801B70120E030E048EC52ECEE
:1004C0000E944A0F882354F5C0916602D0916702BA
:1004D0002197D0936702C09366022196C801B701A5
:1004E00020E030E04AE754EC0E944A0F88232CF4C5
:1004F0002497D0936702C093660280916602909120
:10050000670205975CF485E090E090936702809322
:10051000660204C010926702109266028DEB94E0AE
:100520006EE072E0B2DE60916602709167028DEB60
:1005300094E04AE050E00E94280E609166027091BB
:1005400067028AE051D4DF91CF911F910F91FF9004
:10055000EF900895EF92FF920F931F931092600215
:1005600010926102109262021092630281E3E82EFF
:1005700081E0F82E80E0B70143E050E002D16AE06C
:1005800070E080E090E075D380E077D16091600208
:10059000709161028091620290916302615070409B
:1005A000804090400E94E70F20E030E040E05BE3B5
:1005B0000E949D1020E030E048EC52E40E949D1023
:1005C00020E030E040E752E40E949D106093680212
:1005D0007093690280936A0290936B020DEB14E0B2
:1005E000C8016BE172E051DE4091680250916902EE
:1005F00060916A0270916B02C80122E030E00E94B3
:10060000D40E109260021092610210926202109257
:10061000630281E0B70143E050E0B3D06AE070E0EC
:1006200080E090E026D381E028D160916002709153
:10063000610280916202909163026150704080403B
:1006400090400E94E70F20E030E040E05BE30E9432
:100650009D1020E030E048EC52E40E949D1020E024
:1006600030E040E752E40E949D1060936C0270936A
:100670006D0280936E0290936F02C80160E372E096
:1006800004DE40916C0250916D0260916E02709197
:100690006F02C80122E030E00E94D40E1F910F913A
:1006A000FF90EF9008951F93282F162F80918202BC
:1006B00090918302892B19F4822F60E008C0809109
:1006C000800290918102892B31F4822F61E01DD547
:1006D000812F60E005C0822F60E017D5812F61E097
:1006E00014D51F9108958BE090E068E070E0DBDFA7
:1006F0008DE090E06CE070E0D6DF2CDFDACD0F9378
:100700001F9378940DEB14E0C80140E855E260E0D7
:1007100070E052D7C80164E472E0B7DD8DE061E0BB
:1007200041D48CE061E03ED48AE061E03BD48BE0D0
:1007300061E038D488E061E035D489E061E032D40A
:1007400080E090E0AAE7B5E4809378029093790284
:10075000A0937A02B0937B0280937C0290937D02F7
:10076000A0937E02B0937F0281E090E09093830299
:100770008093820290938102809380021F910F9157
:100780000895883008F078C0E82FF0E0EE0FFF1FE2
:10079000EC57FD4F718360838330D9F0843030F49F
:1007A000813009F444C0823060F439C0853051F1A1
:1007B0008530D8F0863009F446C0873009F05CC037
:1007C0004FC0809169008C7F842B80936900E89AE8
:1007D000089580916900440F551F440F551F837F72
:1007E000842B80936900E99A08958091690074E0F0
:1007F000440F551F7A95E1F78F7C842B8093690015
:10080000EA9A08958091690066E0440F551F6A9541
:10081000E1F78F73842B80936900EB9A08958091A0
:100820006A008C7F842B80936A00EC9A08958091F3
:100830006A00440F551F440F551F837F842B8093FC
:100840006A00ED9A089580916A0024E0440F551FD4
:100850002A95E1F78F7C842B80936A00EE9A0895A5
:1008600080916A0096E0440F551F9A95E1F78F73C7
:10087000842B80936A00EF9A0895883048F583307E
:1008800091F0843028F48130B1F0823050F411C0FE
:10089000853069F0853048F0863079F0873081F412
:1008A0000EC0E8980DC0E9980BC0EA9809C0EB9813
:1008B00007C0EC9805C0ED9803C0EE9801C0EF9812
:1008C000E82FF0E0EE0FFF1FEC57FD4F1182108272
:1008D00008951F920F920FB60F920BB60F9211242C
:1008E0002F933F934F935F936F937F938F939F9338
:1008F000AF93BF93EF93FF93809188029091890209
:10090000892B29F0E0918802F09189021995FF91D5
:10091000EF91BF91AF919F918F917F916F915F9177
:100920004F913F912F910F900BBE0F900FBE0F90E4
:100930001F9018951F920F920FB60F920BB60F9241
:1009400011242F933F934F935F936F937F938F93D4
:100950009F93AF93BF93EF93FF9380918A029091FF
:100960008B02892B29F0E0918A02F0918B02199574
:10097000FF91EF91BF91AF919F918F917F916F9177
:100980005F914F913F912F910F900BBE0F900FBE33
:100990000F901F9018951F920F920FB60F920BB6E3
:1009A0000F9211242F933F934F935F936F937F93F5
:1009B0008F939F93AF93BF93EF93FF9380918C029C
:1009C00090918D02892B29F0E0918C02F0918D029B
:1009D0001995FF91EF91BF91AF919F918F917F9169
:1009E0006F915F914F913F912F910F900BBE0F90A0
:1009F0000FBE0F901F9018951F920F920FB60F9277
:100A00000BB60F9211242F933F934F935F936F93E5
:100A10007F938F939F93AF93BF93EF93FF938091B7
:100A20008E0290918F02892B29F0E0918E02F09135
:100A30008F021995FF91EF91BF91AF919F918F9187
:100A40007F916F915F914F913F912F910F900BBECE
:100A50000F900FBE0F901F9018951F920F920FB618
:100A60000F920BB60F9211242F933F934F935F93E6
:100A70006F937F938F939F93AF93BF93EF93FF9366
:100A80008091840290918502892B29F0E091840263
:100A9000F09185021995FF91EF91BF91AF919F91D0
:100AA0008F917F916F915F914F913F912F910F9017
:100AB0000BBE0F900FBE0F901F9018951F920F92B4
:100AC0000FB60F920BB60F9211242F933F934F93B3
:100AD0005F936F937F938F939F93AF93BF93EF93A6
:100AE000FF938091860290918702892B29F0E091F3
:100AF0008602F09187021995FF91EF91BF91AF9116
:100B00009F918F917F916F915F914F913F912F9125
:100B10000F900BBE0F900FBE0F901F9018951F9255
:100B20000F920FB60F920BB60F9211242F933F9393
:100B30004F935F936F937F938F939F93AF93BF93E5
:100B4000EF93FF938091900290919102892B29F06D
:100B5000E0919002F09191021995FF91EF91BF9170
:100B6000AF919F918F917F916F915F914F913F9145
:100B70002F910F900BBE0F900FBE0F901F901895E6
:100B80001F920F920FB60F920BB60F9211242F9354
:100B90003F934F935F936F937F938F939F93AF9305
:100BA000BF93EF93FF938091920290919302892BD0
:100BB00029F0E0919202F09193021995FF91EF9143
:100BC000BF91AF919F918F917F916F915F914F9165
:100BD0003F912F910F900BBE0F900FBE0F901F9063
:100BE00018951F920F920FB60F9211242F933F93D7
:100BF0008F939F93AF93BF938091980290919902A6
:100C0000A0919A02B0919B0230919C020196A11D85
:100C1000B11D232F2D5F2D3720F02D570196A11DDB
:100C2000B11D20939C028093980290939902A09307
:100C30009A02B0939B028091940290919502A091A8
:100C40009602B09197020196A11DB11D8093940266
:100C500090939502A0939602B0939702BF91AF91A3
:100C60009F918F913F912F910F900FBE0F901F90EA
:100C700018959B01AC017FB7F894809194029091F4
:100C80009502A0919602B091970266B5A89B05C007
:100C90006F3F19F00196A11DB11D7FBFBA2FA92F7B
:100CA000982F8827860F911DA11DB11D62E0880F26
:100CB000991FAA1FBB1F6A95D1F7BC012DC0FFB7B2
:100CC000F8948091940290919502A0919602B0912F
:100CD0009702E6B5A89B05C0EF3F19F00196A11D4C
:100CE000B11DFFBFBA2FA92F982F88278E0F911DF6
:100CF000A11DB11DE2E0880F991FAA1FBB1FEA9535
:100D0000D1F7861B970B885E9340C8F22150304084
:100D10004040504068517C4F211531054105510537
:100D200071F60895789484B5826084BD84B581603D
:100D300084BD85B5826085BD85B5816085BDEEE6E3
:100D4000F0E0808181608083E1E8F0E010828081C2
:100D500082608083808181608083E0E8F0E0808130
:100D600081608083E1EBF0E0808184608083E0EB50
:100D7000F0E0808181608083E1E9F0E08081826041
:100D80008083808181608083E0E9F0E08081816000
:100D90008083E1EAF0E080818260808380818160ED
:100DA0008083E0EAF0E0808181608083E1E2F1E02D
:100DB000808182608083808181608083E0E2F1E0D5
:100DC000808181608083EAE7F0E0808184608083B5
:100DD000808182608083808181608083808180685F
:100DE00080831092C10008951F93CF93DF93182F33
:100DF000EB0161E0D7D0209709F4CAC0CF3FD105FD
:100E000009F4C9C0E12FF0E0E254FE4F849189302B
:100E100009F466C08A30B0F48430F1F1853040F4D2
:100E2000823059F1833070F5813009F0AEC020C0B6
:100E3000873009F443C0883008F048C0863009F094
:100E4000A4C034C08D3009F478C08E3038F48B30B3
:100E500009F45AC08C3008F066C04CC0803109F4E7
:100E600080C0813109F487C08F3009F08EC06FC017
:100E700084B5806884BDC7BD91C084B5806284BDDF
:100E8000C8BD8CC080918000806880938000D09322
:100E90008900C093880082C0809180008062809326
:100EA0008000D0938B00C0938A0078C08091B000FE
:100EB00080688093B000C093B30070C08091B00090
:100EC00080628093B000C093B40068C080919000AD
:100ED000806880939000D0939900C09398005EC082
:100EE00080919000806280939000D0939B00C0938B
:100EF0009A0054C080919000886080939000D093B5
:100F00009D00C0939C004AC08091A000806880939F
:100F1000A0008091A0008F7B8093A000D093A900B7
:100F2000C093A8003BC08091A00080628093A00085
:100F3000D093AB00C093AA0031C08091A00088601C
:100F40008093A000D093AD00C093AC0027C08091E7
:100F50002001806880932001D0932901C09328014B
:100F60001DC080912001806280932001D0932B01CD
:100F7000C0932A0113C080912001886080932001D2
:100F8000D0932D01C0932C0109C0C038D1051CF4A9
:100F9000812F60E002C0812F61E0B7D0DF91CF9157
:100FA0001F910895CF93DF93482F50E0CA018858CE
:100FB0009E4FFC0134914E5C5E4FFA018491882370
:100FC00069F190E0880F991FFC01EC51FF4FA5914A
:100FD000B491FC01E250FF4FC591D491662351F4C6
:100FE0002FB7F8948C91932F909589238C938881B7
:100FF00089230BC0623061F42FB7F8948C91932F42
:10100000909589238C938881832B88832FBF06C07A
:101010009FB7F8948C91832B8C939FBFDF91CF91D6
:101020000895893009F449C08A30A0F4843051F120
:10103000853040F4823079F1833000F5813009F059
:1010400063C026C0873079F1883098F5863009F082
:101050005BC025C08D3009F442C08E3028F48B303F
:10106000B1F18C30C0F52DC0803109F442C081311E
:1010700009F445C08F3009F047C037C08091800027
:101080008F7703C0809180008F7D809380000895CA
:1010900084B58F7702C084B58F7D84BD089580911B
:1010A000B0008F7703C08091B0008F7D8093B00037
:1010B0000895809190008F7707C0809190008F7D78
:1010C00003C080919000877F809390000895809165
:1010D000A0008F7707C08091A0008F7D03C0809112
:1010E000A000877F8093A0000895809120018F77D2
:1010F00003C0809120018F7D80932001089580910D
:101100002001877F809320010895FF920F931F9302
:10111000F62E482F50E0CA0182549E4FFC012491C4
:10112000CA0188589E4FFC0114914E5C5E4FFA0133
:1011300004910023C1F0222311F0822F72DFE02FEF
:10114000F0E0EE0FFF1FE250FF4FA591B4919FB763
:10115000F894FF2021F48C911095812302C08C918A
:10116000812B8C939FBF1F910F91FF90089508953D
:101170001F920F920FB60F920BB60F9211242F935E
:101180003F934F938F939F93EF93FF934091C600AC
:101190002091DD023091DE022F5F3F4F2F733070C0
:1011A0008091DF029091E0022817390759F0E09111
:1011B000DD02F091DE02E356FD4F40833093DE0204
:1011C0002093DD02FF91EF919F918F914F913F917D
:1011D0002F910F900BBE0F900FBE0F901F90189580
:1011E00008951F920F920FB60F920BB60F92112413
:1011F0002F933F934F938F939F93EF93FF93409140
:10120000CE0020916503309166032F5F3F4F2F730F
:10121000307080916703909168032817390759F05F
:10122000E0916503F0916603EB5DFC4F40833093E2
:10123000660320936503FF91EF919F918F914F91EA
:101240003F912F910F900BBE0F900FBE0F901F90EC
:10125000189508951F920F920FB60F920BB60F922A
:1012600011242F933F934F938F939F93EF93FF936B
:101270004091D6002091ED033091EE032F5F3F4F58
:101280002F7330708091EF039091F0032817390786
:1012900059F0E091ED03F091EE03E355FC4F4083EC
:1012A0003093EE032093ED03FF91EF919F918F9187
:1012B0004F913F912F910F900BBE0F900FBE0F904B
:1012C0001F90189508951F920F920FB60F920BB6AC
:1012D0000F9211242F933F934F938F939F93EF93EC
:1012E000FF934091360120917504309176042F5F71
:1012F0003F4F2F73307080917704909178042817B6
:10130000390759F0E0917504F0917604EB5CFB4FDE
:1013100040833093760420937504FF91EF919F9161
:101320008F914F913F912F910F900BBE0F900FBE59
:101330000F901F901895E091C904F091CA04E05CE9
:10134000FF4F8191919120813181821B930B8F738B
:101350009070892B09F00BDFE091E804F091E9042B
:10136000E05CFF4F8191919120813181821B930B31
:101370008F739070892B09F033DFE0910705F091AE
:101380000805E05CFF4F8191919120813181821BA2
:10139000930B8F739070892B09F05BDFE09126052A
:1013A000F0912705E05CFF4F81919191208131817F
:1013B000821B930B8F739070892B09F083CF089554
:1013C0001F920F920FB60F920BB60F9211242F930C
:1013D0003F938F939F93EF93FF932091210330913D
:1013E000220380912303909124032817390731F4B5
:1013F0008091C1008F7D8093C10014C0E0912303D0
:10140000F0912403EF51FD4F2081809123039091AF
:10141000240301968F739070909324038093230389
:101420002093C600FF91EF919F918F913F912F9153
:101430000F900BBE0F900FBE0F901F9018951F922C
:101440000F920FB60F920BB60F9211242F933F936A
:101450008F939F93EF93FF932091A9033091AA0359
:101460008091AB039091AC032817390731F4809138
:10147000C9008F7D8093C90014C0E091AB03F09147
:10148000AC03E759FC4F20818091AB039091AC03F2
:1014900001968F7390709093AC038093AB0320936D
:1014A000CE00FF91EF919F918F913F912F910F90DF
:1014B0000BBE0F900FBE0F901F9018951F920F92AA
:1014C0000FB60F920BB60F9211242F933F938F9369
:1014D0009F93EF93FF9320913104309132048091D8
:1014E0003304909134042817390731F48091D100E6
:1014F0008F7D8093D10014C0E0913304F0913404C7
:10150000EF50FC4F20818091330490913404019678
:101510008F73907090933404809333042093D6009B
:10152000FF91EF919F918F913F912F910F900BBE63
:101530000F900FBE0F901F9018951F920F920FB62D
:101540000F920BB60F9211242F933F938F939F937B
:10155000EF93FF932091B9043091BA048091BB04BA
:101560009091BC042817390731F4809131018F7DA7
:101570008093310114C0E091BB04F091BC04E758A2
:10158000FB4F20818091BB049091BC0401968F7326
:1015900090709093BC048093BB0420933601FF911C
:1015A000EF919F918F913F912F910F900BBE0F90D4
:1015B0000FBE0F901F901895AF92BF92DF92EF92DF
:1015C000FF920F931F93CF93DF93EC017A018B016E
:1015D000DD24403081EE580780E0680780E078071E
:1015E00011F0DD24D39491E0A92EB12CEC89FD8972
:1015F000DD2069F0C5010E8C02C0880F991F0A9486
:10160000E2F7808360E079E08DE390E005C010822E
:1016100060E874E88EE190E0A801970110D62150AF
:10162000304040405040569547953795279580E18A
:101630002030380720F0DD2011F0DD24D7CFE889F5
:10164000F9893083EA89FB892083EE89FF8940810B
:1016500021E030E0C9010A8C02C0880F991F0A946A
:10166000E2F7482B4083EE89FF894081C9010B8C4A
:1016700002C0880F991F0A94E2F7482B4083EE8935
:10168000FF894081C9010C8C02C0880F991F0A9400
:10169000E2F7482B4083EE89FF8980810D8C02C0E0
:1016A000220F331F0A94E2F7209528232083DF912D
:1016B000CF911F910F91FF90EF90DF90BF90AF906F
:1016C0000895DC011C96ED91FC911D97E05CFF4FA5
:1016D0002191319180819181281B390B2F733070BA
:1016E000C9010895DC011C96ED91FC911D97E05C09
:1016F000FF4F20813181E054F040DF01AE5BBF4FEE
:101700008D919C9111972817390719F42FEF3FEF0E
:1017100007C08D919C91E80FF91F8081282F30E040
:10172000C9010895DC011C96ED91FC911D97E05CC8
:10173000FF4F20813181E054F040DF01AE5BBF4FAD
:101740008D919C9111972817390719F42FEF3FEFCE
:1017500010C08D919C911197E80FF91F20818D91F8
:101760009C91119701968F73907011969C938E9314
:1017700030E0C9010895FC0186859785DC01A05CF5
:10178000BF4FFC01EE5BFF4F2D913C911197808183
:10179000918128173907C1F70895CF93DF93EC01A2
:1017A000EE85FF85E05CFF4F20813181E054F04001
:1017B0002F5F3F4F2F733070DF01AE5BBF4F8D91B6
:1017C0009C91119728173907D1F3E05CFF4F808176
:1017D0009181E054F040E80FF91F6083EE85FF85AA
:1017E000E05CFF4F31832083EE89FF89208181E017
:1017F00090E00D8C02C0880F991F0A94E2F7282B05
:10180000208381E090E0DF91CF9108951F931092A3
:10181000C0041092BF0428EE33E040E050E0209373
:10182000C1043093C2044093C3045093C40464E5DC
:1018300072E07093BE046093BD048DE992E09093D2
:10184000CA048093C90481EE92E09093CC04809303
:10185000CB0485EC90E09093CE048093CD0484EC8F
:1018600090E09093D0048093CF0480EC90E090932C
:10187000D2048093D10481EC90E09093D4048093BF
:10188000D30486EC90E09093D6048093D50414E0C2
:101890001093D704B3E0B093D804A7E0A093D90481
:1018A000F5E0F093DA04E1E0E093DB041092DF046A
:1018B0001092DE042093E0043093E1044093E204AC
:1018C0005093E3047093DD046093DC0485E293E0BD
:1018D0009093E9048093E80489E693E09093EB0405
:1018E0008093EA048DEC90E09093ED048093EC04F7
:1018F0008CEC90E09093EF048093EE0488EC90E001
:101900009093F1048093F00489EC90E09093F304B9
:101910008093F2048EEC90E09093F5048093F404AD
:101920001093F604B093F704A093F804F093F9042D
:10193000E093FA041092FE041092FD042093FF0439
:101940003093000540930105509302057093FC0409
:101950006093FB048DEA93E090930805809307055C
:1019600081EF93E090930A058093090585ED90E05F
:1019700090930C0580930B0584ED90E090930E05F9
:1019800080930D0580ED90E09093100580930F05F6
:1019900081ED90E0909312058093110586ED90E023
:1019A000909314058093130510931505B0931605B5
:1019B000A0931705F0931805E093190510921D05E3
:1019C00010921C0520931E0530931F05409320059F
:1019D0005093210570931B0560931A0585E394E0ED
:1019E000909327058093260589E794E09093290535
:1019F0008093280585E391E090932B0580932A0539
:101A000084E391E090932D0580932C0580E391E091
:101A100090932F0580932E0581E391E090933105FB
:101A20008093300586E391E09093330580933205EF
:101A300010933405B0933505A0933605F093370520
:101A4000E09338051F910895CF93DF936BD90E94DF
:101A50007F03CBE9D9E00E9473032097E1F36BDCAD
:101A6000FACFCF92DF92EF92FF920F931F93CF9313
:101A7000DF937C016B018A01C0E0D0E00FC0D6018A
:101A80006D916D01D701ED91FC910190F081E02DF8
:101A9000C7011995C80FD91F015010400115110534
:101AA00071F7CE01DF91CF911F910F91FF90EF90D1
:101AB000DF90CF900895EF92FF920F931F938C01C8
:101AC000DC01ED91FC910190F081E02D6DE0199524
:101AD0007C01D801ED91FC910190F081E02DC801CD
:101AE0006AE019959C012E0D3F1DC9011F910F91B0
:101AF000FF90EF9008954F925F927F928F929F9206
:101B0000AF92BF92CF92DF92EF92FF920F931F930B
:101B1000DF93CF93CDB7DEB7A1970FB6F894DEBFB2
:101B20000FBECDBF2C01742ECB01223008F42AE069
:101B300019A231E2C32ED12CCC0EDD1E822E9924A7
:101B4000AA24BB24672D752FA501940178D37901B0
:101B50008A01C801B701A501940152D3472D461B44
:101B60000894C108D1084A3014F4405D01C0495CB2
:101B7000F6014083E114F1040105110521F07E2CEA
:101B80005F2DC801DFCFC201B6010E944501A196B9
:101B90000FB6F894DEBF0FBECDBFCF91DF911F917E
:101BA0000F91FF90EF90DF90CF90BF90AF909F90FC
:101BB0008F907F905F904F900895DC012115310543
:101BC00041F4ED91FC910190F081E02D642F199585
:101BD000089591CFCF92DF92EF92FF920F931F93D0
:101BE000CF93DF93EC016A017B012115310541F4AC
:101BF000E881F9810190F081E02D642F19951DC0D5
:101C00002A303105C9F477FF16C0E881F9810190C7
:101C1000F081E02D6DE219958C0144275527BA011A
:101C20004C195D096E097F09CE012AE064DF980135
:101C3000280F391F03C02AE05EDF9C01C901DF9134
:101C4000CF911F910F91FF90EF90DF90CF9008956B
:101C5000CF92DF92EF92FF920F931F936C017B0163
:101C60009A010027F7FC0095102FB801A701B2DFF9
:101C70008C01C60120DF080F191FC8011F910F91A9
:101C8000FF90EF90DF90CF9008957F928F929F9278
:101C9000AF92BF92CF92DF92EF92FF920F931F937A
:101CA000CF93DF934C017A018B01722ECB01BA01E5
:101CB00020E030E040E050E0EDD087FD03C0C0E020
:101CC000D0E00EC0D401ED91FC910190F081E02DA7
:101CD000C4016DE21995EC0117FB109517F91095E9
:101CE00020E030E040E05FE3AA240AC0CA01B90165
:101CF00020E030E040E251E4D1D09B01AC01A3945C
:101D0000A714A0F3C801B70161D05B016C0133D106
:101D10007B018C01C401B801A7012AE030E04DDF4E
:101D2000C80FD91F772039F0C4016EE472E00E9419
:101D30004501C80FD91FC801B70149D19B01AC01AA
:101D4000C601B50142D01FC020E030E040E251E4BE
:101D5000F4D17B018C010AD15B016C01CC24B7FC6E
:101D6000C094DC2CC401B601A5012AE030E032DFCA
:101D7000C80FD91FC601B5012CD19B01AC01C80108
:101D8000B70123D07A947720F9F6CE01DF91CF9175
:101D90001F910F91FF90EF90DF90CF90BF90AF9089
:101DA0009F908F907F900895EF92FF920F931F93D3
:101DB0007C016BDF8C01C7017EDE080F191FC80193
:101DC0001F910F91FF90EF9008955058BB27AA27BD
:101DD0000ED075C166D130F06BD120F031F49F3F49
:101DE00011F41EF45BC10EF4E095E7FB51C1E92F3D
:101DF00077D180F3BA17620773078407950718F045
:101E000071F49EF58FC10EF4E0950B2EBA2FA02D24
:101E10000B01B90190010C01CA01A0011124FF2797
:101E2000591B99F0593F50F4503E68F11A16F04092
:101E3000A22F232F342F4427585FF3CF4695379591
:101E40002795A795F0405395C9F77EF41F16BA0B56
:101E5000620B730B840BBAF09150A1F0FF0FBB1F04
:101E6000661F771F881FC2F70EC0BA0F621F731F4D
:101E7000841F48F4879577956795B795F7959E3FAA
:101E800008F0B3CF9395880F08F09927EE0F979538
:101E900087950895D9D008F481E008950CD00FC13A
:101EA00007D140F0FED030F021F45F3F19F0F0C0D0
:101EB000511139C1F3C014D198F39923C9F35523B3
:101EC000B1F3951B550BBB27AA276217730784072D
:101ED00038F09F5F5F4F220F331F441FAA1FA9F3E3
:101EE00033D00E2E3AF0E0E830D091505040E695D5
:101EF000001CCAF729D0FE2F27D0660F771F881F36
:101F0000BB1F261737074807AB07B0E809F0BB0B24
:101F1000802DBF01FF2793585F4F2AF09E3F510548
:101F200068F0B6C000C15F3FECF3983EDCF38695E5
:101F300077956795B795F7959F5FC9F7880F911DBE
:101F40009695879597F90895E1E0660F771F881FAA
:101F5000BB1F621773078407BA0720F0621B730B5D
:101F6000840BBA0BEE1F88F7E095089504D06894AF
:101F7000B111D9C00895BCD088F09F5790F0B92F07
:101F80009927B751A0F0D1F0660F771F881F991FCE
:101F90001AF0BA95C9F712C0B13081F0C3D0B1E0E0
:101FA0000895C0C0672F782F8827B85F39F0B93FF0
:101FB000CCF3869577956795B395D9F73EF49095D0
:101FC0008095709561957F4F8F4F9F4F0895E8944E
:101FD00009C097FB3EF490958095709561957F4F71
:101FE0008F4F9F4F9923A9F0F92F96E9BB2793951F
:101FF000F695879577956795B795F111F8CFFAF42F
:10200000BB0F11F460FF1BC06F5F7F4F8F4F9F4F5F
:1020100016C0882311F096E911C0772321F09EE8BD
:10202000872F762F05C0662371F096E8862F70E023
:1020300060E02AF09A95660F771F881FDAF7880FFD
:102040009695879597F90895990F0008550FAA0B53
:10205000E0E8FEEF16161706E807F907C0F01216BB
:102060001306E407F50798F0621B730B840B950BBE
:1020700039F40A2661F0232B242B252B21F4089513
:102080000A2609F4A140A6958FEF811D811D0895B0
:1020900097F99F6780E870E060E008959FEF80EC1B
:1020A000089500240A9416161706180609060895BE
:1020B00000240A9412161306140605060895092E24
:1020C0000394000C11F4882352F0BB0F40F4BF2B93
:1020D00011F460FF04C06F5F7F4F8F4F9F4F0895D3
:1020E00057FD9058440F551F59F05F3F71F04795C9
:1020F000880F97FB991F61F09F3F79F087950895AE
:10210000121613061406551FF2CF4695F1DF08C0CC
:10211000161617061806991FF1CF869571056105E9
:1021200008940895E894BB2766277727CB0197F991
:1021300008958ADF08F48FEF08950BD0C0CFB1DF88
:1021400028F0B6DF18F0952309F0A2CFA7CF11240D
:10215000EACFC6DFA0F3959FD1F3950F50E0551F4E
:10216000629FF001729FBB27F00DB11D639FAA27EC
:10217000F00DB11DAA1F649F6627B00DA11D661F3B
:10218000829F2227B00DA11D621F739FB00DA11D5C
:10219000621F839FA00D611D221F749F3327A00D16
:1021A000611D231F849F600D211D822F762F6A2FB2
:1021B00011249F5750408AF0E1F088234AF0EE0F37
:1021C000FF1FBB1F661F771F881F91505040A9F744
:1021D0009E3F510570F05CCFA6CF5F3FECF3983E79
:1021E000DCF3869577956795B795F795E7959F5FAB
:1021F000C1F7FE2B880F911D9695879597F9089545
:10220000629FD001739FF001829FE00DF11D649FDA
:10221000E00DF11D929FF00D839FF00D749FF00D66
:10222000659FF00D9927729FB00DE11DF91F639F07
:10223000B00DE11DF91FBD01CF0111240895A1E2E8
:102240001A2EAA1BBB1BFD010DC0AA1FBB1FEE1F30
:10225000FF1FA217B307E407F50720F0A21BB30B7B
:10226000E40BF50B661F771F881F991F1A9469F7F7
:1022700060957095809590959B01AC01BD01CF0153
:102280000895EE0FFF1F0590F491E02D1994F89436
:02229000FFCF7E
:1022920050574D2045737175657264613D0050570A
:1022A2004D20446972656974613D0056656C6F63C7
:1022B20069646164652045737175657264613D008E
:1022C20056656C6F6369646164652044697265690F
:1022D20074613D00496E696369616E646F002E002E
:1022E20000000000CD0B310D610B920B720BBB0B8A
:00000001FF
