:1000000040C064C063C062C061C060C05FC05EC009
:100010005DC09DC05BC0C1C159C058C057C056C06B
:1000200055C054C053C000000000370034003100F8
:1000300000000000380035003200000000003600EB
:100040003300300004040404040404040202020225
:10005000020203030303030301020408102040808B
:100060000102040810200102040810200000000012
:100070000000000000030405000000000000000074
:10008000C60211241FBECFE5D4E0DEBFCDBF10E015
:10009000A0E6B0E0E0EEF8E002C005900D92AC37CB
:1000A000B107D9F711E0ACE7B0E001C01D92AF3164
:1000B000B107E1F710E0C2E8D0E003C02297FE01EB
:1000C00009D4C038D107D1F79BD208C499CF8CE0AE
:1000D00091E0EED11816190604F58CE091E013D2E8
:1000E000682F80937E008CE091E03DD280917C006F
:1000F00090917D00019741F483E161E011D110926C
:100100007D0010927C0009C083E160E009D181E0AC
:1001100090E090937D0080937C006AE070E080E046
:1001200090E05DD008950F931F930CE011E0C8019B
:1001300040E855E260E070E060D1C80160E670E040
:1001400081D383E161E0C6D01F910F9108951F9282
:100150000F920FB60F9211242F933F938F939F937B
:10016000AF93BF938091830090918400A09185000C
:10017000B0918600309187000196A11DB11D232FFB
:100180002D5F2D3720F02D570196A11DB11D209315
:1001900087008093830090938400A0938500B093A0
:1001A000860080917F0090918000A0918100B091A5
:1001B00082000196A11DB11D80937F009093800065
:1001C000A0938100B0938200BF91AF919F918F91D6
:1001D0003F912F910F900FBE0F901F9018959B018C
:1001E000AC017FB7F89480917F0090918000A0913E
:1001F0008100B091820062B708B600FE05C06F3F73
:1002000019F00196A11DB11D7FBFBA2FA92F982FFC
:100210008827860F911DA11DB11D62E0880F991FCF
:10022000AA1FBB1F6A95D1F7BC012EC0FFB7F89477
:1002300080917F0090918000A0918100B091820018
:10024000E2B708B600FE05C0EF3F19F00196A11D08
:10025000B11DFFBFBA2FA92F982F88278E0F911D90
:10026000A11DB11DE2E0880F991FAA1FBB1FEA95CF
:10027000D1F7861B970B885E9340C0F22150304027
:100280004040504068517C4F2115310541055105D2
:1002900069F60895789483B7826083BF83B78160DD
:1002A00083BF89B7816089BF1EBC8EB582608EBD59
:1002B0008EB581608EBD8FB581608FBD85B5846040
:1002C00085BD85B5806485BD329A319A309A379A5A
:1002D0001AB80895482F50E0CA01885A9F4FFC0170
:1002E00024914C5B5F4FFA0184918823C1F0E82F81
:1002F000F0E0EE0FFF1FEA5DFF4FA591B49166237A
:1003000041F49FB7F8948C91209582238C939FBFE2
:1003100008959FB7F8948C91822B8C939FBF08957A
:10032000482F50E0CA0184599F4FFC012491CA0113
:10033000885A9F4FFC0134914C5B5F4FFA019491B6
:10034000992351F1222381F0243039F0253049F0EE
:10035000233051F48FB58F7702C08FB58F7D8FBD5D
:1003600003C085B58F7D85BDE92FF0E0EE0FFF1F3F
:10037000E05DFF4FA591B491662341F49FB7F894D7
:100380008C91309583238C939FBF08959FB7F894E9
:100390008C91832B8C939FBF08951F920F920FB661
:1003A0000F9211242F933F934F938F939F93EF932B
:1003B000FF934CB1E0910801F091090131969F0142
:1003C0002F773070319780910A0190910B01281797
:1003D000390739F0E857FF4F4083309309012093E4
:1003E0000801FF91EF919F918F914F913F912F9134
:1003F0000F900FBE0F901F901895CF93DF93EC01D5
:100400009A01AB01E885F985203081EE380780E05C
:10041000480780E0580709F447C081E090E00A8867
:1004200002C0880F991F0A94E2F7808360E079E0A8
:100430008DE390E032D22150304040405040CA011C
:10044000B90122E030E040E050E027D2EC81FD81AC
:100450003083EE81FF812083EA85FB85208141E0A6
:1004600050E0CA010E8402C0880F991F0A94E2F777
:10047000282B2083EA85FB852081CA010F8402C0D6
:10048000880F991F0A94E2F7282B2083EA85FB85C1
:100490008081088802C0440F551F0A94E2F7842B1C
:1004A0008083DF91CF910895108220E130E0CECF9C
:1004B000DC011296ED91FC911397E058FF4F2191CA
:1004C000319180819181281B390B2F773070C901C0
:1004D0000895DC011296ED91FC911397EE57FF4FB2
:1004E0002081318192918291E058F04082179307E8
:1004F00019F42FEF3FEF05C0E20FF31F8081282F83
:1005000030E0C9010895DC011296ED91FC9113973A
:10051000DF01AE57BF4F2D913C911197E058FF4F2F
:1005200080819181E058F0408217930719F42FEFF2
:100530003FEF0BC0E20FF31F80812F5F3F4F2F77FC
:1005400030702D933C93282F30E0C9010895DC01D1
:100550001296ED91FC911397EE57FF4F8081918198
:10056000929382930895FC01A085B18521898C9195
:1005700090E0022E02C0959587950A94E2F780FFDD
:10058000F6CF0484F585E02D608308958EE690E033
:1005900090930D0180930C0188E890E090930F01F7
:1005A00080930E0180E490E09093110180931001FC
:1005B00089E290E090931301809312018BE290E026
:1005C00090931501809314018AE290E090931701B3
:1005D000809316018CE290E09093190180931801AA
:1005E00084E080931A0183E080931B0187E080936D
:1005F0001C0185E080931D0181E080931E01089518
:1006000049DE91DD64DDFECF0F931F93CF93DF931F
:100610008C01EB0109C02196D801ED91FC9101906C
:10062000F081E02DC801099568816623A1F7DF916B
:10063000CF911F910F910895EF92FF920F931F9307
:10064000CF93DF938C017B01EA010CC0D7016D9140
:100650007D01D801ED91FC910190F081E02DC80160
:1006600009952197209791F7DF91CF911F910F91D5
:10067000FF90EF900895DC01ED91FC910280F381F1
:10068000E02D099508952F923F924F925F926F92BD
:100690007F928F929F92AF92BF92CF92DF92EF9212
:1006A000FF920F931F93DF93CF93CDB7DEB7A09741
:1006B0000FB6F894DEBF0FBECDBF1C016A017B01EF
:1006C000411551056105710541F440E350E060E0DA
:1006D00070E020E030E06DD053C0882499245401AC
:1006E000422E55246624772401E010E00C0F1D1FD4
:1006F000080D191DC701B601A3019201ACD0F80184
:1007000060830894811C911CA11CB11CC701B60117
:10071000A3019201A0D0C901DA016C017D01C114CD
:10072000D104E104F10401F781E0E82EF12CEC0E94
:10073000FD1EE80CF91C3E010894611C711CD501DA
:10074000C4010197A109B1096C01C818D90815C0E5
:10075000F601EE0DFF1D40814A3010F4405D01C0EE
:10076000495C552747FD5095652F752FC10120E045
:1007700030E01FD00894E108F1086E147F0441F7BF
:10078000A0960FB6F894DEBF0FBECDBFCF91DF911C
:100790001F910F91FF90EF90DF90CF90BF90AF909F
:1007A0009F908F907F906F905F904F903F902F9091
:1007B0000895EF92FF920F931F93CF93DF93EC0175
:1007C0007A018B012115310541F4E881F98101900D
:1007D000F081E02D642F099519C02A303105A9F464
:1007E00077FF0FC04DE250E060E070E020E030E0C5
:1007F000E0DF10950095F094E094E11CF11C011DE0
:10080000111DCE01B801A7012AE03DDFDF91CF9194
:100810001F910F91FF90EF9008950F931F938C01FC
:100820004DE050E060E070E020E030E0C2DFC80161
:100830004AE050E060E070E020E030E0BADF1F9175
:100840000F9108950F931F938C0115DFC801E5DF09
:100850001F910F910895A1E21A2EAA1BBB1BFD0147
:100860000DC0AA1FBB1FEE1FFF1FA217B307E4078F
:10087000F50720F0A21BB30BE40BF50B661F771FE7
:10088000881F991F1A9469F76095709580959095C7
:100890009B01AC01BD01CF01089597FB092E0526F0
:1008A0000ED057FD04D0D7DF0AD0001C38F4509585
:1008B0004095309521953F4F4F4F5F4F0895F6F784
:1008C00090958095709561957F4F8F4F9F4F0895BC
:1008D000EE0FFF1F0590F491E02D0994F894FFCFDF
:1008E000494E494349414E444F0000000000B302C5
:0C08F00004031C03580283026902A702E3
:00000001FF
