:1000000040C008C434C462C061C060C05FC05EC08C
:100010005DC05AC45BC0C9C50DC658C057C056C0E4
:1000200055C054C053C000000000370034003100F8
:1000300000000000380035003200000000003600EB
:100040003300300004040404040404040202020225
:10005000020203030303030301020408102040808B
:100060000102040810200102040810200000000012
:100070000000000000030405000000000000000074
:100080007A0711241FBECFE5D4E0DEBFCDBF11E05B
:10009000A0E6B0E0ECE6F8E102C005900D92AE33C8
:1000A000B107D9F712E0AEE3B1E001C01D92AB3168
:1000B000B107E1F710E0C2E8D0E003C02297FE01EB
:1000C000CFDBC038D107D1F765D7CECB99CF8091A0
:1000D0003E0190913F01A0914001B09141010196F4
:1000E000A11DB11D80933E0190933F01A09340015B
:1000F000B09341010895CF93DF93DB010D90002071
:10010000E9F71197A61BB70BEC01E881F981028092
:10011000F381E02DAD010995DF91CF910895EF9224
:10012000FF920F931F93CF93DF93E0905601F090CF
:1001300057010091580110915901C801B70120E001
:1001400030E040E050E093D9882309F471C0C80141
:10015000B7012091460130914701409148015091EB
:10016000490120D97B018C0160934E0170934F01AE
:10017000809350019093510120E030E048EC52E42C
:10018000C5DA18163CF5C0914201D0914301219681
:10019000D0934301C09342012197C801B70120E0E9
:1001A00030E04AE754E4B2DA18162CF42596D093DE
:1001B0004301C093420180914201909143018F3FDE
:1001C000910549F144F18FEF90E0909343018093C2
:1001D000420121C0C801B70120E030E048EC52ECF8
:1001E00046D988234CF5C0914201D0914301219713
:1001F000D0934301C09342012196C801B70120E08A
:1002000030E04AE754EC33D988232CF42597D09377
:100210004301C093420180914201909143010597AF
:100220005CF485E090E0909343018093420104C028
:1002300010924301109242018CEF91E060E670E071
:100240005ADF60914201709143018CEF91E04AE0E6
:1002500050E0D9D7609142017091430189E0F7D312
:10026000E0905A01F0905B0100915C0110915D01FA
:10027000C801B70120E030E040E050E0F8D8882322
:1002800009F471C0C801B70120914A0130914B01B6
:1002900040914C0150914D0185D87B018C016093B8
:1002A000520170935301809354019093550120E0C3
:1002B00030E048EC52E42ADA18163CF5C0914401CB
:1002C000D09145012196D0934501C09344012197D7
:1002D000C801B70120E030E04AE754E417DA181605
:1002E0002CF42596D0934501C0934401809144019C
:1002F000909145018F3F910549F144F18FEF90E0D6
:10030000909345018093440121C0C801B70120E0CA
:1003100030E048EC52ECABD888234CF5C091440156
:10032000D09145012197D0934501C0934401219676
:10033000C801B70120E030E04AE754EC98D88823A0
:100340002CF42597D0934501C0934401809144013A
:100350009091450105975CF485E090E0909345010C
:100360008093440104C010924501109244018CEF27
:1003700091E06EE670E0BFDE60914401709145014E
:100380008CEF91E04AE050E03ED7609144017091DB
:1003900045018AE05CD3DF91CF911F910F91FF90CF
:1003A000EF9008956F927F928F929F92AF92BF923B
:1003B000CF92DF92EF92FF920F931F9310923E0124
:1003C00010923F01109240011092410197E6692E70
:1003D00090E0792E80E0B30143E050E0E2D16AE0A2
:1003E00070E080E090E0B8D280E0FED160913E0104
:1003F00070913F018091400190914101E0903E0158
:10040000F0903F0100914001109141016150704016
:1004100080409040C9D85B016C01C801B701C4D8C5
:100420002FE832EC45EF5CEB75D99B01AC01C601BE
:10043000B501B9D720E030E040E05BE36BD920E0C4
:1004400030E048EC52E466D920E030E040E752E486
:1004500061D960934601709347018093480190935E
:1004600049018CEF882E81E0982EC4016BE770E083
:1004700042DE4091460150914701609148017091E0
:100480004901C40122E030E06BD710923E01109286
:100490003F01109240011092410181E0B30143E01D
:1004A00050E07FD16AE070E080E090E055D281E0DA
:1004B0009BD160913E0170913F01809140019091EC
:1004C0004101E0903E01F0903F0100914001109108
:1004D0004101615070408040904066D85B016C01E2
:1004E000C801B70161D82FE832EC45EF5CEB12D9B7
:1004F0009B01AC01C601B50156D720E030E040E0D9
:100500005BE308D920E030E048EC52E403D920E076
:1005100030E040E752E4FED860934A0170934B010B
:1005200080934C0190934D01C40160E970E0E3DDDC
:1005300040914A0150914B0160914C0170914D01E5
:10054000C40122E030E00CD71F910F91FF90EF9093
:10055000DF90CF90BF90AF909F908F907F906F90E3
:1005600008951F93282F162F8091650190916601A1
:10057000892B19F4822F60E008C08091630190916B
:100580006401892B31F4822F61E0D5D2812F60E0A4
:1005900005C0822F60E0CFD2812F61E0CCD21F91C5
:1005A00008958CEF91E001D4181619060CF0D0C014
:1005B0008CEF91E02BD480935E018CEF91E064EAA4
:1005C00070E03ED68CEF91E060915E0142E050E039
:1005D000C0D580915E0182958695869583708093C3
:1005E0005F01109260018CEF91E061EB70E028D622
:1005F00060915F01709160018CEF91E04AE050E002
:100600008DD580915F0190916001019709F09BC0A9
:1006100080915E0190E065E0959587956A95E1F798
:100620008170907090936201809361018CEF91E0F2
:1006300068EB70E005D660916101709162018CEF0A
:1006400091E04AE050E06AD580915E0190E054E08C
:10065000959587955A95E1F7817090709093640114
:10066000809363018CEF91E06FEB70E0E9D56091CE
:100670006301709164018CEF91E04AE050E04ED547
:1006800080915E0190E08F709070909366018093EE
:1006900065018CEF91E066EC70E0D2D56091650168
:1006A000709166018CEF91E04AE050E037D5E0911F
:1006B0006501F0916601EE0FFF1FEE0FFF1FE7517E
:1006C000FF4F40815181628173818CEF91E02AE07C
:1006D00030E046D68091610190916201E091650120
:1006E000F0916601892BB9F4EE0FFF1FEE0FFF1F8B
:1006F000E751FF4F80819181A281B38180935601A0
:1007000090935701A0935801B09359018BE090E06A
:1007100068E070E016C0EE0FFF1FEE0FFF1FE751FD
:10072000FF4F80819181A281B38180935A01909380
:100730005B01A0935C01B0935D018DE090E06CE003
:1007400070E00FDF08958CEF91E06CEC70E019D64B
:10075000089527DF27DEE3DC08950F931F93789435
:100760000CEF11E0C80140E855E260E070E098D27B
:10077000C8016DED70E0BFDC8DE061E09DD18CE0E3
:1007800061E09AD18AE061E097D18BE061E094D199
:1007900088E061E091D189E061E08ED11F910F91F5
:1007A0000895823000F5E82FF0E0EE0FFF1FE959C1
:1007B000FE4F71836083882319F08130A1F408C053
:1007C00085B78C7F842B85BF8BB780648BBF0895E2
:1007D00085B7440F551F440F551F837F842B85BF5A
:1007E0008BB780688BBF0895E82F823090F4882300
:1007F00019F0813039F403C08BB78F7B02C08BB7FF
:100800008F778BBFF0E0EE0FFF1FE959FE4F11828B
:10081000108208951F920F920FB60F9211242F93FA
:100820003F934F935F936F937F938F939F93AF9378
:10083000BF93EF93FF938091670190916801892B9B
:1008400029F0E0916701F09168010995FF91EF911E
:10085000BF91AF919F918F917F916F915F914F91D8
:100860003F912F910F900FBE0F901F9018951F92E0
:100870000F920FB60F9211242F933F934F935F93D4
:100880006F937F938F939F93AF93BF93EF93FF9358
:100890008091690190916A01892B29F0E0916901A9
:1008A000F0916A010995FF91EF91BF91AF919F91EE
:1008B0008F917F916F915F914F913F912F910F9009
:1008C0000FBE0F901F9018951F920F920FB60F92A8
:1008D00011242F933F938F939F93AF93BF93809156
:1008E0006F0190917001A0917101B09172013091EE
:1008F00073010196A11DB11D232F2D5F2D3720F00F
:100900002D570196A11DB11D2093730180936F0196
:1009100090937001A0937101B093720180916B016B
:1009200090916C01A0916D01B0916E010196A11D95
:10093000B11D80936B0190936C01A0936D01B093F6
:100940006E01BF91AF919F918F913F912F910F9029
:100950000FBE0F901F9018959B01AC017FB7F894C4
:1009600080916B0190916C01A0916D01B0916E012D
:1009700062B708B600FE05C06F3F19F00196A11DD1
:10098000B11D7FBFBA2FA92F982F8827860F911DE1
:10099000A11DB11D62E0880F991FAA1FBB1F6A9598
:1009A000D1F7BC012EC0FFB7F89480916B019091F4
:1009B0006C01A0916D01B0916E01E2B708B600FE26
:1009C00005C0EF3F19F00196A11DB11DFFBFBA2F61
:1009D000A92F982F88278E0F911DA11DB11DE2E030
:1009E000880F991FAA1FBB1FEA95D1F7861B970B8B
:1009F000885E9340C0F221503040404050406851E2
:100A00007C4F211531054105510569F6089578940B
:100A100083B7826083BF83B7816083BF89B78160FA
:100A200089BF1EBC8EB582608EBD8EB581608EBDC5
:100A30008FB581608FBD85B5846085BD85B58064C7
:100A400085BD329A319A309A379A1AB808951F9311
:100A5000CF93DF93182FEB0161E02ED0209711F197
:100A6000CF3FD10511F1E12FF0E0E459FF4F849120
:100A7000843051F0853071F0833089F48FB580680F
:100A80008FBDDBBDCABD14C08FB580628FBDD9BD1F
:100A9000C8BD0EC085B5806285BDC3BD09C0C03864
:100AA000D1051CF4812F60E002C0812F61E043D0AA
:100AB000DF91CF911F910895CF93DF93482F50E09E
:100AC000CA01885A9F4FFC0134914C5B5F4FFA0179
:100AD0008491882369F190E0880F991FFC01EA5DF9
:100AE000FF4FA591B491FC01E05DFF4FC591D491FA
:100AF000662351F42FB7F8948C91932F9095892306
:100B00008C93888189230BC0623061F42FB7F894ED
:100B10008C91932F909589238C938881832B888344
:100B20002FBF06C09FB7F8948C91832B8C939FBFE7
:100B3000DF91CF910895482F50E0CA0184599F4F0B
:100B4000FC012491CA01885A9F4FFC0194914C5B8F
:100B50005F4FFA013491332331F1222381F02430A5
:100B600039F0253049F0233051F48FB58F7702C02A
:100B70008FB58F7D8FBD03C085B58F7D85BDE32F7C
:100B8000F0E0EE0FFF1FE05DFF4FA591B4912FB78E
:100B9000F894662321F48C919095892302C08C915E
:100BA000892B8C932FBF089508951F920F920FB633
:100BB0000F9211242F933F934F938F939F93EF9313
:100BC000FF934CB12091B4013091B5012F5F3F4F9D
:100BD0002F7330708091B6019091B70128173907B3
:100BE00059F0E091B401F091B501EC58FE4F40830B
:100BF0003093B5012093B401FF91EF919F918F91B4
:100C00004F913F912F910F900FBE0F901F9018950D
:100C1000E0910802F0910902E05CFF4F819191910F
:100C200020813181821B930B8F739070892B09F087
:100C3000BBDF08951F920F920FB60F9211242F93CE
:100C40003F938F939F93EF93FF932091F8013091FF
:100C5000F9018091FA019091FB012817390711F4ED
:100C6000559813C0E091FA01F091FB01E854FE4F52
:100C700020818091FA019091FB0101968F73907011
:100C80009093FB018093FA012CB9FF91EF919F9112
:100C90008F913F912F910F900FBE0F901F9018953D
:100CA000AF92BF92DF92EF92FF920F931F93CF9379
:100CB000DF93EC017A018B01DD24403081EE58078F
:100CC00080E0680780E0780711F0DD24D39491E09C
:100CD000A92EB12CEC89FD89DD2069F0C5010E8CAF
:100CE00002C0880F991F0A94E2F7808360E079E0E0
:100CF0008DE390E005C0108260E874E88EE190E03A
:100D0000A801970189D52150304040405040569568
:100D100047953795279580E12030380720F0DD2072
:100D200011F0DD24D7CFE889F9893083EA89FB897E
:100D30002083EE89FF89408121E030E0C9010A8CDF
:100D400002C0880F991F0A94E2F7482B4083EE896E
:100D5000FF894081C9010B8C02C0880F991F0A943A
:100D6000E2F7482B4083EE89FF894081C9010C8C52
:100D700002C0880F991F0A94E2F7482B4083EE893E
:100D8000FF8980810D8C02C0220F331F0A94E2F785
:100D9000209528232083DF91CF911F910F91FF9001
:100DA000EF90DF90BF90AF900895DC011C96ED911D
:100DB000FC911D97E05CFF4F2191319180819181E1
:100DC000281B390B2F733070C9010895DC011C9664
:100DD000ED91FC911D97E05CFF4F20813181E05443
:100DE000F040DF01AE5BBF4F8D919C9111972817AA
:100DF000390719F42FEF3FEF07C08D919C91E80F51
:100E0000F91F8081282F30E0C9010895DC011C966C
:100E1000ED91FC911D97E05CFF4F20813181E05402
:100E2000F040DF01AE5BBF4F8D919C911197281769
:100E3000390719F42FEF3FEF10C08D919C91119756
:100E4000E80FF91F20818D919C91119701968F7366
:100E5000907011969C938E9330E0C9010895FC0127
:100E600086859785DC01A05CBF4FFC01EE5BFF4FE0
:100E70002D913C9111978081918128173907C1F7F5
:100E80000895CF93DF93EC01EE85FF85E05CFF4F83
:100E900020813181E054F0402F5F3F4F2F7330703D
:100EA000DF01AE5BBF4F8D919C91119728173907D9
:100EB000D1F3E05CFF4F80819181E054F040E80F76
:100EC000F91F6083EE85FF85E05CFF4F318320834F
:100ED000EE89FF89208181E090E00D8C02C0880FAF
:100EE000991F0A94E2F7282B208381E090E0DF919C
:100EF000CF9108951092FF011092FE0188EE93E0C9
:100F0000A0E0B0E08093000290930102A09302025F
:100F1000B093030281E391E09093FD018093FC0183
:100F200084E791E0909309028093080288EB91E0B6
:100F300090930B0280930A0280E490E090930D025C
:100F400080930C0289E290E090930F0280930E024E
:100F50008BE290E090931102809310028AE290E07D
:100F600090931302809312028CE290E0909315020A
:100F70008093140284E08093160283E0809317022A
:100F800087E08093180285E08093190281E08093C6
:100F90001A020895CF93DF933ADDDFDBC8E0D6E095
:100FA000D8DB2097E9F334DEFBCFCF92DF92EF92CC
:100FB000FF920F931F93CF93DF937C016B018A0104
:100FC000C0E0D0E00FC0D6016D916D01D701ED9169
:100FD000FC910190F081E02DC7010995C80FD91F40
:100FE000015010400115110571F7CE01DF91CF912D
:100FF0001F910F91FF90EF90DF90CF900895EF92A7
:10100000FF920F931F938C01DC01ED91FC910190F5
:10101000F081E02D6DE009957C01D801ED91FC9106
:101020000190F081E02DC8016AE009959C012E0D28
:101030003F1DC9011F910F91FF90EF9008954F92AE
:101040005F927F928F929F92AF92BF92CF92DF92E8
:10105000EF92FF920F931F93DF93CF93CDB7DEB73D
:10106000A1970FB6F894DEBF0FBECDBF2C01742E32
:10107000CB01223008F42AE019A231E2C32ED12C90
:10108000CC0EDD1E822E9924AA24BB24672D752F39
:10109000A5019401C1D379018A01C801B701A50155
:1010A00094019BD3472D461B0894C108D1084A30B0
:1010B00014F4405D01C0495CF6014083E114F10481
:1010C0000105110521F07E2C5F2DC801DFCFC20183
:1010D000B60111D8A1960FB6F894DEBF0FBECDBFF2
:1010E000CF91DF911F910F91FF90EF90DF90CF9004
:1010F000BF90AF909F908F907F905F904F9008959A
:10110000DC012115310541F4ED91FC910190F08154
:10111000E02D642F0995089592DF0895CF92DF9214
:10112000EF92FF920F931F936C017B019A0100E0F5
:1011300010E0B801A701E4DF8C01C60160DF080FF1
:10114000191FC8011F910F91FF90EF90DF90CF9072
:101150000895CF92DF92EF92FF920F931F936C014D
:10116000E62E9A01FF2400E010E0B801A701C8DFD5
:101170008C01C60144DF080F191FC8011F910F9190
:10118000FF90EF90DF90CF900895CF92DF92EF9293
:10119000FF920F931F93CF93DF93EC016A017B01C2
:1011A0002115310541F4E881F9810190F081E02DAC
:1011B000642F09951DC02A303105C9F477FF16C088
:1011C000E881F9810190F081E02D6DE209958C01B3
:1011D00044275527BA014C195D096E097F09CE01D4
:1011E0002AE02DDF9801280F391F03C02AE027DFEE
:1011F0009C01C901DF91CF911F910F91FF90EF905A
:10120000DF90CF900895CF92DF92EF92FF920F93ED
:101210001F936C017B019A010027F7FC0095102FAA
:10122000B801A701B2DF8C01C601E9DE080F191F62
:10123000C8011F910F91FF90EF90DF90CF9008951C
:101240005AD708957F928F929F92AF92BF92CF927A
:10125000DF92EF92FF920F931F93CF93DF934C0196
:101260007A018B01722ECB01BA0120E030E040E020
:1012700050E0FDD087FD03C0C0E0D0E00EC0D40137
:10128000ED91FC910190F081E02DC4016DE2099592
:10129000EC0117FB109517F9109520E030E040E0C5
:1012A0005FE3AA240AC0CA01B90120E030E040E2AD
:1012B00051E4E1D09B01AC01A394A714A0F3C801B1
:1012C000B70171D05B016C0143D17B018C01C4017A
:1012D000B801A7012AE030E013DFC80FD91F77203B
:1012E00031F0C40167EE70E006D7C80FD91FC801FE
:1012F000B7015AD19B01AC01C601B50153D01FC043
:1013000020E030E040E251E405D27B018C011BD1AA
:101310005B016C01CC24B7FCC094DC2CC401B60189
:10132000A5012AE030E031DFC80FD91FC601B501A1
:101330003DD19B01AC01C801B70134D07A9477202C
:10134000F9F6CE01DF91CF911F910F91FF90EF90B1
:10135000DF90CF90BF90AF909F908F907F90089537
:10136000EF92FF920F931F937C016CDF8C01C701FA
:1013700046DE080F191FC8011F910F91FF90EF90D3
:101380000895EF92FF920F931F937C01B4D68C01C6
:10139000C70135DE080F191FC8011F910F91FF907B
:1013A000EF9008955058BB27AA270ED075C166D17B
:1013B00030F06BD120F031F49F3F11F41EF45BC18B
:1013C0000EF4E095E7FB51C1E92F77D180F3BA170E
:1013D000620773078407950718F071F49EF58FC1B3
:1013E0000EF4E0950B2EBA2FA02D0B01B901900140
:1013F0000C01CA01A0011124FF27591B99F0593F84
:1014000050F4503E68F11A16F040A22F232F342FCB
:101410004427585FF3CF469537952795A795F04019
:101420005395C9F77EF41F16BA0B620B730B840B2E
:10143000BAF09150A1F0FF0FBB1F661F771F881FE6
:10144000C2F70EC0BA0F621F731F841F48F487953E
:1014500077956795B795F7959E3F08F0B3CF93952D
:10146000880F08F09927EE0F979587950895D9D0A2
:1014700008F481E008950CD00FC107D140F0FED0F0
:1014800030F021F45F3F19F0F0C0511139C1F3C0C1
:1014900014D198F39923C9F35523B1F3951B550B38
:1014A000BB27AA2762177307840738F09F5F5F4F37
:1014B000220F331F441FAA1FA9F333D00E2E3AF078
:1014C000E0E830D091505040E695001CCAF729D092
:1014D000FE2F27D0660F771F881FBB1F26173707E1
:1014E0004807AB07B0E809F0BB0B802DBF01FF2711
:1014F00093585F4F2AF09E3F510568F0B6C000C177
:101500005F3FECF3983EDCF3869577956795B7954A
:10151000F7959F5FC9F7880F911D9695879597F965
:101520000895E1E0660F771F881FBB1F62177307DE
:101530008407BA0720F0621B730B840BBA0BEE1FF3
:1015400088F7E095089504D06894B111D9C0089542
:10155000BCD088F09F5790F0B92F9927B751A0F0D1
:10156000D1F0660F771F881F991F1AF0BA95C9F737
:1015700012C0B13081F0C3D0B1E00895C0C0672F70
:10158000782F8827B85F39F0B93FCCF386957795E7
:101590006795B395D9F73EF49095809570956195D0
:1015A0007F4F8F4F9F4F0895E89409C097FB3EF4FB
:1015B00090958095709561957F4F8F4F9F4F9923A0
:1015C000A9F0F92F96E9BB279395F695879577951E
:1015D0006795B795F111F8CFFAF4BB0F11F460FFDE
:1015E0001BC06F5F7F4F8F4F9F4F16C0882311F036
:1015F00096E911C0772321F09EE8872F762F05C04A
:10160000662371F096E8862F70E060E02AF09A95E4
:10161000660F771F881FDAF7880F9695879597F9D9
:101620000895990F0008550FAA0BE0E8FEEF161673
:101630001706E807F907C0F012161306E407F507C6
:1016400098F0621B730B840B950B39F40A2661F03A
:10165000232B242B252B21F408950A2609F4A140DD
:10166000A6958FEF811D811D089597F99F6780E8EA
:1016700070E060E008959FEF80EC089500240A94E4
:101680001616170618060906089500240A9412165D
:101690001306140605060895092E0394000C11F490
:1016A000882352F0BB0F40F4BF2B11F460FF04C03D
:1016B0006F5F7F4F8F4F9F4F089557FD9058440F96
:1016C000551F59F05F3F71F04795880F97FB991FA1
:1016D00061F09F3F79F0879508951216130614065E
:1016E000551FF2CF4695F1DF08C0161617061806EB
:1016F000991FF1CF86957105610508940895E894C6
:10170000BB2766277727CB0197F908958ADF08F46E
:101710008FEF08950BD0C0CFB1DF28F0B6DF18F0FF
:10172000952309F0A2CFA7CF1124EACFC6DFA0F3FB
:10173000959FD1F3950F50E0551F629FF001729F66
:10174000BB27F00DB11D639FAA27F00DB11DAA1F85
:10175000649F6627B00DA11D661F829F2227B00DD2
:10176000A11D621F739FB00DA11D621F839FA00D5D
:10177000611D221F749F3327A00D611D231F849FAD
:10178000600D211D822F762F6A2F11249F57504004
:101790008AF0E1F088234AF0EE0FFF1FBB1F661F9F
:1017A000771F881F91505040A9F79E3F510570F058
:1017B0005CCFA6CF5F3FECF3983EDCF38695779540
:1017C0006795B795F795E7959F5FC1F7FE2B880F53
:1017D000911D9695879597F90895629FD001739F03
:1017E000F001829FE00DF11D649FE00DF11D929FBD
:1017F000F00D839FF00D749FF00D659FF00D9927FC
:10180000729FB00DE11DF91F639FB00DE11DF91F1F
:10181000BD01CF0111240895A1E21A2EAA1BBB1B02
:10182000FD010DC0AA1FBB1FEE1FFF1FA217B307AC
:10183000E407F50720F0A21BB30BE40BF50B661FC2
:10184000771F881F991F1A9469F760957095809586
:1018500090959B01AC01BD01CF010895EE0FFF1FD4
:0C1860000590F491E02D0994F894FFCF5E
:10186C0050574D2045737175657264613D0050573A
:10187C004D20446972656974613D0056656C6F63F7
:10188C0069646164652045737175657264613D00BE
:10189C0056656C6F6369646164652044697265693F
:1018AC0074613D00492072656365697665643A2010
:1018BC0000526F626F3A2000526F64613A200053FD
:1018CC0069676E3A200050574D3A20004E616F20E8
:1018DC006568206573746520726F626F00496E696C
:1018EC006369616E646F002E000000000000007AD6
:1018FC00440080BB440000FA4400401C4500803B7F
:10190C004500C05A4500007A4500A08C4500409C1B
:10191C004500E0AB450080BB450020CB4500C0DA5C
:10192C00450060EA450000FA4500D004460000007E
:0E193C00004107D507D5060607E6062F07006F
:00000001FF
